{
	"compilerInput": "{\"language\":\"Solidity\",\"sources\":{\"ProductCertification.sol\":{\"content\":\"// SPDX-License-Identifier: MIT\\r\\npragma solidity ^0.8.0;\\r\\n\\r\\ncontract ProductCertification {\\r\\n    struct Product {\\r\\n        string name;\\r\\n        uint256 sustainabilityScore;\\r\\n        bool fairTradeCertified;\\r\\n    }\\r\\n\\r\\n    mapping(uint256 => Product) public products;\\r\\n    uint256 public productCount = 0;\\r\\n\\r\\n    function addProduct(\\r\\n        string memory name,\\r\\n        uint256 sustainabilityScore,\\r\\n        bool fairTradeCertified\\r\\n    ) public returns (uint256) {\\r\\n        productCount++;\\r\\n        products[productCount] = Product(\\r\\n            name,\\r\\n            sustainabilityScore,\\r\\n            fairTradeCertified\\r\\n        );\\r\\n        return productCount;\\r\\n    }\\r\\n\\r\\n    function verifyProduct(uint256 productId)\\r\\n        public\\r\\n        view\\r\\n        returns (bool)\\r\\n    {\\r\\n        Product memory product = products[productId];\\r\\n        if (\\r\\n            product.sustainabilityScore >= 80 &&\\r\\n            product.fairTradeCertified\\r\\n        ) {\\r\\n            return true;\\r\\n        }\\r\\n        return false;\\r\\n    }\\r\\n}\\r\\n\"}},\"settings\":{\"optimizer\":{\"enabled\":false,\"runs\":200},\"outputSelection\":{\"*\":{\"\":[\"ast\"],\"*\":[\"abi\",\"metadata\",\"devdoc\",\"userdoc\",\"storageLayout\",\"evm.legacyAssembly\",\"evm.bytecode\",\"evm.deployedBytecode\",\"evm.methodIdentifiers\",\"evm.gasEstimates\",\"evm.assembly\"]}},\"remappings\":[]}}",
	"name": "ProductCertification",
	"bytecode": {
		"linkReferences": {},
		"object": "60806040525f6001553480156012575f80fd5b506109fa806100205f395ff3fe608060405234801561000f575f80fd5b506004361061004a575f3560e01c8063524e84621461004e5780637acc0b201461007e578063e0f6ef87146100b0578063efd57a33146100ce575b5f80fd5b61006860048036038101906100639190610393565b6100fe565b60405161007591906103d8565b60405180910390f35b61009860048036038101906100939190610393565b6101ff565b6040516100a793929190610470565b60405180910390f35b6100b86102b6565b6040516100c591906104ac565b60405180910390f35b6100e860048036038101906100e3919061061b565b6102bc565b6040516100f591906104ac565b60405180910390f35b5f805f808481526020019081526020015f206040518060600160405290815f8201805461012a906106b4565b80601f0160208091040260200160405190810160405280929190818152602001828054610156906106b4565b80156101a15780601f10610178576101008083540402835291602001916101a1565b820191905f5260205f20905b81548152906001019060200180831161018457829003601f168201915b5050505050815260200160018201548152602001600282015f9054906101000a900460ff161515151581525050905060508160200151101580156101e6575080604001515b156101f55760019150506101fa565b5f9150505b919050565b5f602052805f5260405f205f91509050805f01805461021d906106b4565b80601f0160208091040260200160405190810160405280929190818152602001828054610249906106b4565b80156102945780601f1061026b57610100808354040283529160200191610294565b820191905f5260205f20905b81548152906001019060200180831161027757829003601f168201915b505050505090806001015490806002015f9054906101000a900460ff16905083565b60015481565b5f60015f8154809291906102cf90610711565b919050555060405180606001604052808581526020018481526020018315158152505f8060015481526020019081526020015f205f820151815f01908161031691906108f5565b50602082015181600101556040820151816002015f6101000a81548160ff02191690831515021790555090505060015490509392505050565b5f604051905090565b5f80fd5b5f80fd5b5f819050919050565b61037281610360565b811461037c575f80fd5b50565b5f8135905061038d81610369565b92915050565b5f602082840312156103a8576103a7610358565b5b5f6103b58482850161037f565b91505092915050565b5f8115159050919050565b6103d2816103be565b82525050565b5f6020820190506103eb5f8301846103c9565b92915050565b5f81519050919050565b5f82825260208201905092915050565b8281835e5f83830152505050565b5f601f19601f8301169050919050565b5f610433826103f1565b61043d81856103fb565b935061044d81856020860161040b565b61045681610419565b840191505092915050565b61046a81610360565b82525050565b5f6060820190508181035f8301526104888186610429565b90506104976020830185610461565b6104a460408301846103c9565b949350505050565b5f6020820190506104bf5f830184610461565b92915050565b5f80fd5b5f80fd5b7f4e487b71000000000000000000000000000000000000000000000000000000005f52604160045260245ffd5b61050382610419565b810181811067ffffffffffffffff82111715610522576105216104cd565b5b80604052505050565b5f61053461034f565b905061054082826104fa565b919050565b5f67ffffffffffffffff82111561055f5761055e6104cd565b5b61056882610419565b9050602081019050919050565b828183375f83830152505050565b5f61059561059084610545565b61052b565b9050828152602081018484840111156105b1576105b06104c9565b5b6105bc848285610575565b509392505050565b5f82601f8301126105d8576105d76104c5565b5b81356105e8848260208601610583565b91505092915050565b6105fa816103be565b8114610604575f80fd5b50565b5f81359050610615816105f1565b92915050565b5f805f6060848603121561063257610631610358565b5b5f84013567ffffffffffffffff81111561064f5761064e61035c565b5b61065b868287016105c4565b935050602061066c8682870161037f565b925050604061067d86828701610607565b9150509250925092565b7f4e487b71000000000000000000000000000000000000000000000000000000005f52602260045260245ffd5b5f60028204905060018216806106cb57607f821691505b6020821081036106de576106dd610687565b5b50919050565b7f4e487b71000000000000000000000000000000000000000000000000000000005f52601160045260245ffd5b5f61071b82610360565b91507fffffffffffffffffffffffffffffffffffffffffffffffffffffffffffffffff820361074d5761074c6106e4565b5b600182019050919050565b5f819050815f5260205f209050919050565b5f6020601f8301049050919050565b5f82821b905092915050565b5f600883026107b47fffffffffffffffffffffffffffffffffffffffffffffffffffffffffffffffff82610779565b6107be8683610779565b95508019841693508086168417925050509392505050565b5f819050919050565b5f6107f96107f46107ef84610360565b6107d6565b610360565b9050919050565b5f819050919050565b610812836107df565b61082661081e82610800565b848454610785565b825550505050565b5f90565b61083a61082e565b610845818484610809565b505050565b5b818110156108685761085d5f82610832565b60018101905061084b565b5050565b601f8211156108ad5761087e81610758565b6108878461076a565b81016020851015610896578190505b6108aa6108a28561076a565b83018261084a565b50505b505050565b5f82821c905092915050565b5f6108cd5f19846008026108b2565b1980831691505092915050565b5f6108e583836108be565b9150826002028217905092915050565b6108fe826103f1565b67ffffffffffffffff811115610917576109166104cd565b5b61092182546106b4565b61092c82828561086c565b5f60209050601f83116001811461095d575f841561094b578287015190505b61095585826108da565b8655506109bc565b601f19841661096b86610758565b5f5b828110156109925784890151825560018201915060208501945060208101905061096d565b868310156109af57848901516109ab601f8916826108be565b8355505b6001600288020188555050505b50505050505056fea2646970667358221220c1fd2d06254dcf8c2c6ba55ce993b70b5c87bcee41649d9d0a5fe7a6d127e6b264736f6c634300081a0033",
		"opcodes": "PUSH1 0x80 PUSH1 0x40 MSTORE PUSH0 PUSH1 0x1 SSTORE CALLVALUE DUP1 ISZERO PUSH1 0x12 JUMPI PUSH0 DUP1 REVERT JUMPDEST POP PUSH2 0x9FA DUP1 PUSH2 0x20 PUSH0 CODECOPY PUSH0 RETURN INVALID PUSH1 0x80 PUSH1 0x40 MSTORE CALLVALUE DUP1 ISZERO PUSH2 0xF JUMPI PUSH0 DUP1 REVERT JUMPDEST POP PUSH1 0x4 CALLDATASIZE LT PUSH2 0x4A JUMPI PUSH0 CALLDATALOAD PUSH1 0xE0 SHR DUP1 PUSH4 0x524E8462 EQ PUSH2 0x4E JUMPI DUP1 PUSH4 0x7ACC0B20 EQ PUSH2 0x7E JUMPI DUP1 PUSH4 0xE0F6EF87 EQ PUSH2 0xB0 JUMPI DUP1 PUSH4 0xEFD57A33 EQ PUSH2 0xCE JUMPI JUMPDEST PUSH0 DUP1 REVERT JUMPDEST PUSH2 0x68 PUSH1 0x4 DUP1 CALLDATASIZE SUB DUP2 ADD SWAP1 PUSH2 0x63 SWAP2 SWAP1 PUSH2 0x393 JUMP JUMPDEST PUSH2 0xFE JUMP JUMPDEST PUSH1 0x40 MLOAD PUSH2 0x75 SWAP2 SWAP1 PUSH2 0x3D8 JUMP JUMPDEST PUSH1 0x40 MLOAD DUP1 SWAP2 SUB SWAP1 RETURN JUMPDEST PUSH2 0x98 PUSH1 0x4 DUP1 CALLDATASIZE SUB DUP2 ADD SWAP1 PUSH2 0x93 SWAP2 SWAP1 PUSH2 0x393 JUMP JUMPDEST PUSH2 0x1FF JUMP JUMPDEST PUSH1 0x40 MLOAD PUSH2 0xA7 SWAP4 SWAP3 SWAP2 SWAP1 PUSH2 0x470 JUMP JUMPDEST PUSH1 0x40 MLOAD DUP1 SWAP2 SUB SWAP1 RETURN JUMPDEST PUSH2 0xB8 PUSH2 0x2B6 JUMP JUMPDEST PUSH1 0x40 MLOAD PUSH2 0xC5 SWAP2 SWAP1 PUSH2 0x4AC JUMP JUMPDEST PUSH1 0x40 MLOAD DUP1 SWAP2 SUB SWAP1 RETURN JUMPDEST PUSH2 0xE8 PUSH1 0x4 DUP1 CALLDATASIZE SUB DUP2 ADD SWAP1 PUSH2 0xE3 SWAP2 SWAP1 PUSH2 0x61B JUMP JUMPDEST PUSH2 0x2BC JUMP JUMPDEST PUSH1 0x40 MLOAD PUSH2 0xF5 SWAP2 SWAP1 PUSH2 0x4AC JUMP JUMPDEST PUSH1 0x40 MLOAD DUP1 SWAP2 SUB SWAP1 RETURN JUMPDEST PUSH0 DUP1 PUSH0 DUP1 DUP5 DUP2 MSTORE PUSH1 0x20 ADD SWAP1 DUP2 MSTORE PUSH1 0x20 ADD PUSH0 KECCAK256 PUSH1 0x40 MLOAD DUP1 PUSH1 0x60 ADD PUSH1 0x40 MSTORE SWAP1 DUP2 PUSH0 DUP3 ADD DUP1 SLOAD PUSH2 0x12A SWAP1 PUSH2 0x6B4 JUMP JUMPDEST DUP1 PUSH1 0x1F ADD PUSH1 0x20 DUP1 SWAP2 DIV MUL PUSH1 0x20 ADD PUSH1 0x40 MLOAD SWAP1 DUP2 ADD PUSH1 0x40 MSTORE DUP1 SWAP3 SWAP2 SWAP1 DUP2 DUP2 MSTORE PUSH1 0x20 ADD DUP3 DUP1 SLOAD PUSH2 0x156 SWAP1 PUSH2 0x6B4 JUMP JUMPDEST DUP1 ISZERO PUSH2 0x1A1 JUMPI DUP1 PUSH1 0x1F LT PUSH2 0x178 JUMPI PUSH2 0x100 DUP1 DUP4 SLOAD DIV MUL DUP4 MSTORE SWAP2 PUSH1 0x20 ADD SWAP2 PUSH2 0x1A1 JUMP JUMPDEST DUP3 ADD SWAP2 SWAP1 PUSH0 MSTORE PUSH1 0x20 PUSH0 KECCAK256 SWAP1 JUMPDEST DUP2 SLOAD DUP2 MSTORE SWAP1 PUSH1 0x1 ADD SWAP1 PUSH1 0x20 ADD DUP1 DUP4 GT PUSH2 0x184 JUMPI DUP3 SWAP1 SUB PUSH1 0x1F AND DUP3 ADD SWAP2 JUMPDEST POP POP POP POP POP DUP2 MSTORE PUSH1 0x20 ADD PUSH1 0x1 DUP3 ADD SLOAD DUP2 MSTORE PUSH1 0x20 ADD PUSH1 0x2 DUP3 ADD PUSH0 SWAP1 SLOAD SWAP1 PUSH2 0x100 EXP SWAP1 DIV PUSH1 0xFF AND ISZERO ISZERO ISZERO ISZERO DUP2 MSTORE POP POP SWAP1 POP PUSH1 0x50 DUP2 PUSH1 0x20 ADD MLOAD LT ISZERO DUP1 ISZERO PUSH2 0x1E6 JUMPI POP DUP1 PUSH1 0x40 ADD MLOAD JUMPDEST ISZERO PUSH2 0x1F5 JUMPI PUSH1 0x1 SWAP2 POP POP PUSH2 0x1FA JUMP JUMPDEST PUSH0 SWAP2 POP POP JUMPDEST SWAP2 SWAP1 POP JUMP JUMPDEST PUSH0 PUSH1 0x20 MSTORE DUP1 PUSH0 MSTORE PUSH1 0x40 PUSH0 KECCAK256 PUSH0 SWAP2 POP SWAP1 POP DUP1 PUSH0 ADD DUP1 SLOAD PUSH2 0x21D SWAP1 PUSH2 0x6B4 JUMP JUMPDEST DUP1 PUSH1 0x1F ADD PUSH1 0x20 DUP1 SWAP2 DIV MUL PUSH1 0x20 ADD PUSH1 0x40 MLOAD SWAP1 DUP2 ADD PUSH1 0x40 MSTORE DUP1 SWAP3 SWAP2 SWAP1 DUP2 DUP2 MSTORE PUSH1 0x20 ADD DUP3 DUP1 SLOAD PUSH2 0x249 SWAP1 PUSH2 0x6B4 JUMP JUMPDEST DUP1 ISZERO PUSH2 0x294 JUMPI DUP1 PUSH1 0x1F LT PUSH2 0x26B JUMPI PUSH2 0x100 DUP1 DUP4 SLOAD DIV MUL DUP4 MSTORE SWAP2 PUSH1 0x20 ADD SWAP2 PUSH2 0x294 JUMP JUMPDEST DUP3 ADD SWAP2 SWAP1 PUSH0 MSTORE PUSH1 0x20 PUSH0 KECCAK256 SWAP1 JUMPDEST DUP2 SLOAD DUP2 MSTORE SWAP1 PUSH1 0x1 ADD SWAP1 PUSH1 0x20 ADD DUP1 DUP4 GT PUSH2 0x277 JUMPI DUP3 SWAP1 SUB PUSH1 0x1F AND DUP3 ADD SWAP2 JUMPDEST POP POP POP POP POP SWAP1 DUP1 PUSH1 0x1 ADD SLOAD SWAP1 DUP1 PUSH1 0x2 ADD PUSH0 SWAP1 SLOAD SWAP1 PUSH2 0x100 EXP SWAP1 DIV PUSH1 0xFF AND SWAP1 POP DUP4 JUMP JUMPDEST PUSH1 0x1 SLOAD DUP2 JUMP JUMPDEST PUSH0 PUSH1 0x1 PUSH0 DUP2 SLOAD DUP1 SWAP3 SWAP2 SWAP1 PUSH2 0x2CF SWAP1 PUSH2 0x711 JUMP JUMPDEST SWAP2 SWAP1 POP SSTORE POP PUSH1 0x40 MLOAD DUP1 PUSH1 0x60 ADD PUSH1 0x40 MSTORE DUP1 DUP6 DUP2 MSTORE PUSH1 0x20 ADD DUP5 DUP2 MSTORE PUSH1 0x20 ADD DUP4 ISZERO ISZERO DUP2 MSTORE POP PUSH0 DUP1 PUSH1 0x1 SLOAD DUP2 MSTORE PUSH1 0x20 ADD SWAP1 DUP2 MSTORE PUSH1 0x20 ADD PUSH0 KECCAK256 PUSH0 DUP3 ADD MLOAD DUP2 PUSH0 ADD SWAP1 DUP2 PUSH2 0x316 SWAP2 SWAP1 PUSH2 0x8F5 JUMP JUMPDEST POP PUSH1 0x20 DUP3 ADD MLOAD DUP2 PUSH1 0x1 ADD SSTORE PUSH1 0x40 DUP3 ADD MLOAD DUP2 PUSH1 0x2 ADD PUSH0 PUSH2 0x100 EXP DUP2 SLOAD DUP2 PUSH1 0xFF MUL NOT AND SWAP1 DUP4 ISZERO ISZERO MUL OR SWAP1 SSTORE POP SWAP1 POP POP PUSH1 0x1 SLOAD SWAP1 POP SWAP4 SWAP3 POP POP POP JUMP JUMPDEST PUSH0 PUSH1 0x40 MLOAD SWAP1 POP SWAP1 JUMP JUMPDEST PUSH0 DUP1 REVERT JUMPDEST PUSH0 DUP1 REVERT JUMPDEST PUSH0 DUP2 SWAP1 POP SWAP2 SWAP1 POP JUMP JUMPDEST PUSH2 0x372 DUP2 PUSH2 0x360 JUMP JUMPDEST DUP2 EQ PUSH2 0x37C JUMPI PUSH0 DUP1 REVERT JUMPDEST POP JUMP JUMPDEST PUSH0 DUP2 CALLDATALOAD SWAP1 POP PUSH2 0x38D DUP2 PUSH2 0x369 JUMP JUMPDEST SWAP3 SWAP2 POP POP JUMP JUMPDEST PUSH0 PUSH1 0x20 DUP3 DUP5 SUB SLT ISZERO PUSH2 0x3A8 JUMPI PUSH2 0x3A7 PUSH2 0x358 JUMP JUMPDEST JUMPDEST PUSH0 PUSH2 0x3B5 DUP5 DUP3 DUP6 ADD PUSH2 0x37F JUMP JUMPDEST SWAP2 POP POP SWAP3 SWAP2 POP POP JUMP JUMPDEST PUSH0 DUP2 ISZERO ISZERO SWAP1 POP SWAP2 SWAP1 POP JUMP JUMPDEST PUSH2 0x3D2 DUP2 PUSH2 0x3BE JUMP JUMPDEST DUP3 MSTORE POP POP JUMP JUMPDEST PUSH0 PUSH1 0x20 DUP3 ADD SWAP1 POP PUSH2 0x3EB PUSH0 DUP4 ADD DUP5 PUSH2 0x3C9 JUMP JUMPDEST SWAP3 SWAP2 POP POP JUMP JUMPDEST PUSH0 DUP2 MLOAD SWAP1 POP SWAP2 SWAP1 POP JUMP JUMPDEST PUSH0 DUP3 DUP3 MSTORE PUSH1 0x20 DUP3 ADD SWAP1 POP SWAP3 SWAP2 POP POP JUMP JUMPDEST DUP3 DUP2 DUP4 MCOPY PUSH0 DUP4 DUP4 ADD MSTORE POP POP POP JUMP JUMPDEST PUSH0 PUSH1 0x1F NOT PUSH1 0x1F DUP4 ADD AND SWAP1 POP SWAP2 SWAP1 POP JUMP JUMPDEST PUSH0 PUSH2 0x433 DUP3 PUSH2 0x3F1 JUMP JUMPDEST PUSH2 0x43D DUP2 DUP6 PUSH2 0x3FB JUMP JUMPDEST SWAP4 POP PUSH2 0x44D DUP2 DUP6 PUSH1 0x20 DUP7 ADD PUSH2 0x40B JUMP JUMPDEST PUSH2 0x456 DUP2 PUSH2 0x419 JUMP JUMPDEST DUP5 ADD SWAP2 POP POP SWAP3 SWAP2 POP POP JUMP JUMPDEST PUSH2 0x46A DUP2 PUSH2 0x360 JUMP JUMPDEST DUP3 MSTORE POP POP JUMP JUMPDEST PUSH0 PUSH1 0x60 DUP3 ADD SWAP1 POP DUP2 DUP2 SUB PUSH0 DUP4 ADD MSTORE PUSH2 0x488 DUP2 DUP7 PUSH2 0x429 JUMP JUMPDEST SWAP1 POP PUSH2 0x497 PUSH1 0x20 DUP4 ADD DUP6 PUSH2 0x461 JUMP JUMPDEST PUSH2 0x4A4 PUSH1 0x40 DUP4 ADD DUP5 PUSH2 0x3C9 JUMP JUMPDEST SWAP5 SWAP4 POP POP POP POP JUMP JUMPDEST PUSH0 PUSH1 0x20 DUP3 ADD SWAP1 POP PUSH2 0x4BF PUSH0 DUP4 ADD DUP5 PUSH2 0x461 JUMP JUMPDEST SWAP3 SWAP2 POP POP JUMP JUMPDEST PUSH0 DUP1 REVERT JUMPDEST PUSH0 DUP1 REVERT JUMPDEST PUSH32 0x4E487B7100000000000000000000000000000000000000000000000000000000 PUSH0 MSTORE PUSH1 0x41 PUSH1 0x4 MSTORE PUSH1 0x24 PUSH0 REVERT JUMPDEST PUSH2 0x503 DUP3 PUSH2 0x419 JUMP JUMPDEST DUP2 ADD DUP2 DUP2 LT PUSH8 0xFFFFFFFFFFFFFFFF DUP3 GT OR ISZERO PUSH2 0x522 JUMPI PUSH2 0x521 PUSH2 0x4CD JUMP JUMPDEST JUMPDEST DUP1 PUSH1 0x40 MSTORE POP POP POP JUMP JUMPDEST PUSH0 PUSH2 0x534 PUSH2 0x34F JUMP JUMPDEST SWAP1 POP PUSH2 0x540 DUP3 DUP3 PUSH2 0x4FA JUMP JUMPDEST SWAP2 SWAP1 POP JUMP JUMPDEST PUSH0 PUSH8 0xFFFFFFFFFFFFFFFF DUP3 GT ISZERO PUSH2 0x55F JUMPI PUSH2 0x55E PUSH2 0x4CD JUMP JUMPDEST JUMPDEST PUSH2 0x568 DUP3 PUSH2 0x419 JUMP JUMPDEST SWAP1 POP PUSH1 0x20 DUP2 ADD SWAP1 POP SWAP2 SWAP1 POP JUMP JUMPDEST DUP3 DUP2 DUP4 CALLDATACOPY PUSH0 DUP4 DUP4 ADD MSTORE POP POP POP JUMP JUMPDEST PUSH0 PUSH2 0x595 PUSH2 0x590 DUP5 PUSH2 0x545 JUMP JUMPDEST PUSH2 0x52B JUMP JUMPDEST SWAP1 POP DUP3 DUP2 MSTORE PUSH1 0x20 DUP2 ADD DUP5 DUP5 DUP5 ADD GT ISZERO PUSH2 0x5B1 JUMPI PUSH2 0x5B0 PUSH2 0x4C9 JUMP JUMPDEST JUMPDEST PUSH2 0x5BC DUP5 DUP3 DUP6 PUSH2 0x575 JUMP JUMPDEST POP SWAP4 SWAP3 POP POP POP JUMP JUMPDEST PUSH0 DUP3 PUSH1 0x1F DUP4 ADD SLT PUSH2 0x5D8 JUMPI PUSH2 0x5D7 PUSH2 0x4C5 JUMP JUMPDEST JUMPDEST DUP2 CALLDATALOAD PUSH2 0x5E8 DUP5 DUP3 PUSH1 0x20 DUP7 ADD PUSH2 0x583 JUMP JUMPDEST SWAP2 POP POP SWAP3 SWAP2 POP POP JUMP JUMPDEST PUSH2 0x5FA DUP2 PUSH2 0x3BE JUMP JUMPDEST DUP2 EQ PUSH2 0x604 JUMPI PUSH0 DUP1 REVERT JUMPDEST POP JUMP JUMPDEST PUSH0 DUP2 CALLDATALOAD SWAP1 POP PUSH2 0x615 DUP2 PUSH2 0x5F1 JUMP JUMPDEST SWAP3 SWAP2 POP POP JUMP JUMPDEST PUSH0 DUP1 PUSH0 PUSH1 0x60 DUP5 DUP7 SUB SLT ISZERO PUSH2 0x632 JUMPI PUSH2 0x631 PUSH2 0x358 JUMP JUMPDEST JUMPDEST PUSH0 DUP5 ADD CALLDATALOAD PUSH8 0xFFFFFFFFFFFFFFFF DUP2 GT ISZERO PUSH2 0x64F JUMPI PUSH2 0x64E PUSH2 0x35C JUMP JUMPDEST JUMPDEST PUSH2 0x65B DUP7 DUP3 DUP8 ADD PUSH2 0x5C4 JUMP JUMPDEST SWAP4 POP POP PUSH1 0x20 PUSH2 0x66C DUP7 DUP3 DUP8 ADD PUSH2 0x37F JUMP JUMPDEST SWAP3 POP POP PUSH1 0x40 PUSH2 0x67D DUP7 DUP3 DUP8 ADD PUSH2 0x607 JUMP JUMPDEST SWAP2 POP POP SWAP3 POP SWAP3 POP SWAP3 JUMP JUMPDEST PUSH32 0x4E487B7100000000000000000000000000000000000000000000000000000000 PUSH0 MSTORE PUSH1 0x22 PUSH1 0x4 MSTORE PUSH1 0x24 PUSH0 REVERT JUMPDEST PUSH0 PUSH1 0x2 DUP3 DIV SWAP1 POP PUSH1 0x1 DUP3 AND DUP1 PUSH2 0x6CB JUMPI PUSH1 0x7F DUP3 AND SWAP2 POP JUMPDEST PUSH1 0x20 DUP3 LT DUP2 SUB PUSH2 0x6DE JUMPI PUSH2 0x6DD PUSH2 0x687 JUMP JUMPDEST JUMPDEST POP SWAP2 SWAP1 POP JUMP JUMPDEST PUSH32 0x4E487B7100000000000000000000000000000000000000000000000000000000 PUSH0 MSTORE PUSH1 0x11 PUSH1 0x4 MSTORE PUSH1 0x24 PUSH0 REVERT JUMPDEST PUSH0 PUSH2 0x71B DUP3 PUSH2 0x360 JUMP JUMPDEST SWAP2 POP PUSH32 0xFFFFFFFFFFFFFFFFFFFFFFFFFFFFFFFFFFFFFFFFFFFFFFFFFFFFFFFFFFFFFFFF DUP3 SUB PUSH2 0x74D JUMPI PUSH2 0x74C PUSH2 0x6E4 JUMP JUMPDEST JUMPDEST PUSH1 0x1 DUP3 ADD SWAP1 POP SWAP2 SWAP1 POP JUMP JUMPDEST PUSH0 DUP2 SWAP1 POP DUP2 PUSH0 MSTORE PUSH1 0x20 PUSH0 KECCAK256 SWAP1 POP SWAP2 SWAP1 POP JUMP JUMPDEST PUSH0 PUSH1 0x20 PUSH1 0x1F DUP4 ADD DIV SWAP1 POP SWAP2 SWAP1 POP JUMP JUMPDEST PUSH0 DUP3 DUP3 SHL SWAP1 POP SWAP3 SWAP2 POP POP JUMP JUMPDEST PUSH0 PUSH1 0x8 DUP4 MUL PUSH2 0x7B4 PUSH32 0xFFFFFFFFFFFFFFFFFFFFFFFFFFFFFFFFFFFFFFFFFFFFFFFFFFFFFFFFFFFFFFFF DUP3 PUSH2 0x779 JUMP JUMPDEST PUSH2 0x7BE DUP7 DUP4 PUSH2 0x779 JUMP JUMPDEST SWAP6 POP DUP1 NOT DUP5 AND SWAP4 POP DUP1 DUP7 AND DUP5 OR SWAP3 POP POP POP SWAP4 SWAP3 POP POP POP JUMP JUMPDEST PUSH0 DUP2 SWAP1 POP SWAP2 SWAP1 POP JUMP JUMPDEST PUSH0 PUSH2 0x7F9 PUSH2 0x7F4 PUSH2 0x7EF DUP5 PUSH2 0x360 JUMP JUMPDEST PUSH2 0x7D6 JUMP JUMPDEST PUSH2 0x360 JUMP JUMPDEST SWAP1 POP SWAP2 SWAP1 POP JUMP JUMPDEST PUSH0 DUP2 SWAP1 POP SWAP2 SWAP1 POP JUMP JUMPDEST PUSH2 0x812 DUP4 PUSH2 0x7DF JUMP JUMPDEST PUSH2 0x826 PUSH2 0x81E DUP3 PUSH2 0x800 JUMP JUMPDEST DUP5 DUP5 SLOAD PUSH2 0x785 JUMP JUMPDEST DUP3 SSTORE POP POP POP POP JUMP JUMPDEST PUSH0 SWAP1 JUMP JUMPDEST PUSH2 0x83A PUSH2 0x82E JUMP JUMPDEST PUSH2 0x845 DUP2 DUP5 DUP5 PUSH2 0x809 JUMP JUMPDEST POP POP POP JUMP JUMPDEST JUMPDEST DUP2 DUP2 LT ISZERO PUSH2 0x868 JUMPI PUSH2 0x85D PUSH0 DUP3 PUSH2 0x832 JUMP JUMPDEST PUSH1 0x1 DUP2 ADD SWAP1 POP PUSH2 0x84B JUMP JUMPDEST POP POP JUMP JUMPDEST PUSH1 0x1F DUP3 GT ISZERO PUSH2 0x8AD JUMPI PUSH2 0x87E DUP2 PUSH2 0x758 JUMP JUMPDEST PUSH2 0x887 DUP5 PUSH2 0x76A JUMP JUMPDEST DUP2 ADD PUSH1 0x20 DUP6 LT ISZERO PUSH2 0x896 JUMPI DUP2 SWAP1 POP JUMPDEST PUSH2 0x8AA PUSH2 0x8A2 DUP6 PUSH2 0x76A JUMP JUMPDEST DUP4 ADD DUP3 PUSH2 0x84A JUMP JUMPDEST POP POP JUMPDEST POP POP POP JUMP JUMPDEST PUSH0 DUP3 DUP3 SHR SWAP1 POP SWAP3 SWAP2 POP POP JUMP JUMPDEST PUSH0 PUSH2 0x8CD PUSH0 NOT DUP5 PUSH1 0x8 MUL PUSH2 0x8B2 JUMP JUMPDEST NOT DUP1 DUP4 AND SWAP2 POP POP SWAP3 SWAP2 POP POP JUMP JUMPDEST PUSH0 PUSH2 0x8E5 DUP4 DUP4 PUSH2 0x8BE JUMP JUMPDEST SWAP2 POP DUP3 PUSH1 0x2 MUL DUP3 OR SWAP1 POP SWAP3 SWAP2 POP POP JUMP JUMPDEST PUSH2 0x8FE DUP3 PUSH2 0x3F1 JUMP JUMPDEST PUSH8 0xFFFFFFFFFFFFFFFF DUP2 GT ISZERO PUSH2 0x917 JUMPI PUSH2 0x916 PUSH2 0x4CD JUMP JUMPDEST JUMPDEST PUSH2 0x921 DUP3 SLOAD PUSH2 0x6B4 JUMP JUMPDEST PUSH2 0x92C DUP3 DUP3 DUP6 PUSH2 0x86C JUMP JUMPDEST PUSH0 PUSH1 0x20 SWAP1 POP PUSH1 0x1F DUP4 GT PUSH1 0x1 DUP2 EQ PUSH2 0x95D JUMPI PUSH0 DUP5 ISZERO PUSH2 0x94B JUMPI DUP3 DUP8 ADD MLOAD SWAP1 POP JUMPDEST PUSH2 0x955 DUP6 DUP3 PUSH2 0x8DA JUMP JUMPDEST DUP7 SSTORE POP PUSH2 0x9BC JUMP JUMPDEST PUSH1 0x1F NOT DUP5 AND PUSH2 0x96B DUP7 PUSH2 0x758 JUMP JUMPDEST PUSH0 JUMPDEST DUP3 DUP2 LT ISZERO PUSH2 0x992 JUMPI DUP5 DUP10 ADD MLOAD DUP3 SSTORE PUSH1 0x1 DUP3 ADD SWAP2 POP PUSH1 0x20 DUP6 ADD SWAP5 POP PUSH1 0x20 DUP2 ADD SWAP1 POP PUSH2 0x96D JUMP JUMPDEST DUP7 DUP4 LT ISZERO PUSH2 0x9AF JUMPI DUP5 DUP10 ADD MLOAD PUSH2 0x9AB PUSH1 0x1F DUP10 AND DUP3 PUSH2 0x8BE JUMP JUMPDEST DUP4 SSTORE POP JUMPDEST PUSH1 0x1 PUSH1 0x2 DUP9 MUL ADD DUP9 SSTORE POP POP POP JUMPDEST POP POP POP POP POP POP JUMP INVALID LOG2 PUSH5 0x6970667358 0x22 SLT KECCAK256 0xC1 REVERT 0x2D MOD 0x25 0x4D 0xCF DUP13 0x2C PUSH12 0xA55CE993B70B5C87BCEE4164 SWAP14 SWAP14 EXP PUSH0 0xE7 0xA6 0xD1 0x27 0xE6 0xB2 PUSH5 0x736F6C6343 STOP ADDMOD BYTE STOP CALLER "
	},
	"abi": [
		{
			"inputs": [
				{
					"internalType": "string",
					"name": "name",
					"type": "string"
				},
				{
					"internalType": "uint256",
					"name": "sustainabilityScore",
					"type": "uint256"
				},
				{
					"internalType": "bool",
					"name": "fairTradeCertified",
					"type": "bool"
				}
			],
			"name": "addProduct",
			"outputs": [
				{
					"internalType": "uint256",
					"name": "",
					"type": "uint256"
				}
			],
			"stateMutability": "nonpayable",
			"type": "function"
		},
		{
			"inputs": [],
			"name": "productCount",
			"outputs": [
				{
					"internalType": "uint256",
					"name": "",
					"type": "uint256"
				}
			],
			"stateMutability": "view",
			"type": "function"
		},
		{
			"inputs": [
				{
					"internalType": "uint256",
					"name": "",
					"type": "uint256"
				}
			],
			"name": "products",
			"outputs": [
				{
					"internalType": "string",
					"name": "name",
					"type": "string"
				},
				{
					"internalType": "uint256",
					"name": "sustainabilityScore",
					"type": "uint256"
				},
				{
					"internalType": "bool",
					"name": "fairTradeCertified",
					"type": "bool"
				}
			],
			"stateMutability": "view",
			"type": "function"
		},
		{
			"inputs": [
				{
					"internalType": "uint256",
					"name": "productId",
					"type": "uint256"
				}
			],
			"name": "verifyProduct",
			"outputs": [
				{
					"internalType": "bool",
					"name": "",
					"type": "bool"
				}
			],
			"stateMutability": "view",
			"type": "function"
		}
	],
	"storageLayout": {
		"storage": [
			{
				"astId": 13,
				"contract": "ProductCertification.sol:ProductCertification",
				"label": "products",
				"offset": 0,
				"slot": "0",
				"type": "t_mapping(t_uint256,t_struct(Product)8_storage)"
			},
			{
				"astId": 16,
				"contract": "ProductCertification.sol:ProductCertification",
				"label": "productCount",
				"offset": 0,
				"slot": "1",
				"type": "t_uint256"
			}
		],
		"types": {
			"t_bool": {
				"encoding": "inplace",
				"label": "bool",
				"numberOfBytes": "1"
			},
			"t_mapping(t_uint256,t_struct(Product)8_storage)": {
				"encoding": "mapping",
				"key": "t_uint256",
				"label": "mapping(uint256 => struct ProductCertification.Product)",
				"numberOfBytes": "32",
				"value": "t_struct(Product)8_storage"
			},
			"t_string_storage": {
				"encoding": "bytes",
				"label": "string",
				"numberOfBytes": "32"
			},
			"t_struct(Product)8_storage": {
				"encoding": "inplace",
				"label": "struct ProductCertification.Product",
				"members": [
					{
						"astId": 3,
						"contract": "ProductCertification.sol:ProductCertification",
						"label": "name",
						"offset": 0,
						"slot": "0",
						"type": "t_string_storage"
					},
					{
						"astId": 5,
						"contract": "ProductCertification.sol:ProductCertification",
						"label": "sustainabilityScore",
						"offset": 0,
						"slot": "1",
						"type": "t_uint256"
					},
					{
						"astId": 7,
						"contract": "ProductCertification.sol:ProductCertification",
						"label": "fairTradeCertified",
						"offset": 0,
						"slot": "2",
						"type": "t_bool"
					}
				],
				"numberOfBytes": "96"
			},
			"t_uint256": {
				"encoding": "inplace",
				"label": "uint256",
				"numberOfBytes": "32"
			}
		}
	},
	"web3Deploy": "var productcertificationContract = new web3.eth.Contract([{\"inputs\":[{\"internalType\":\"string\",\"name\":\"name\",\"type\":\"string\"},{\"internalType\":\"uint256\",\"name\":\"sustainabilityScore\",\"type\":\"uint256\"},{\"internalType\":\"bool\",\"name\":\"fairTradeCertified\",\"type\":\"bool\"}],\"name\":\"addProduct\",\"outputs\":[{\"internalType\":\"uint256\",\"name\":\"\",\"type\":\"uint256\"}],\"stateMutability\":\"nonpayable\",\"type\":\"function\"},{\"inputs\":[],\"name\":\"productCount\",\"outputs\":[{\"internalType\":\"uint256\",\"name\":\"\",\"type\":\"uint256\"}],\"stateMutability\":\"view\",\"type\":\"function\"},{\"inputs\":[{\"internalType\":\"uint256\",\"name\":\"\",\"type\":\"uint256\"}],\"name\":\"products\",\"outputs\":[{\"internalType\":\"string\",\"name\":\"name\",\"type\":\"string\"},{\"internalType\":\"uint256\",\"name\":\"sustainabilityScore\",\"type\":\"uint256\"},{\"internalType\":\"bool\",\"name\":\"fairTradeCertified\",\"type\":\"bool\"}],\"stateMutability\":\"view\",\"type\":\"function\"},{\"inputs\":[{\"internalType\":\"uint256\",\"name\":\"productId\",\"type\":\"uint256\"}],\"name\":\"verifyProduct\",\"outputs\":[{\"internalType\":\"bool\",\"name\":\"\",\"type\":\"bool\"}],\"stateMutability\":\"view\",\"type\":\"function\"}]);\nvar productcertification = productcertificationContract.deploy({\n     data: '0x60806040525f6001553480156012575f80fd5b506109fa806100205f395ff3fe608060405234801561000f575f80fd5b506004361061004a575f3560e01c8063524e84621461004e5780637acc0b201461007e578063e0f6ef87146100b0578063efd57a33146100ce575b5f80fd5b61006860048036038101906100639190610393565b6100fe565b60405161007591906103d8565b60405180910390f35b61009860048036038101906100939190610393565b6101ff565b6040516100a793929190610470565b60405180910390f35b6100b86102b6565b6040516100c591906104ac565b60405180910390f35b6100e860048036038101906100e3919061061b565b6102bc565b6040516100f591906104ac565b60405180910390f35b5f805f808481526020019081526020015f206040518060600160405290815f8201805461012a906106b4565b80601f0160208091040260200160405190810160405280929190818152602001828054610156906106b4565b80156101a15780601f10610178576101008083540402835291602001916101a1565b820191905f5260205f20905b81548152906001019060200180831161018457829003601f168201915b5050505050815260200160018201548152602001600282015f9054906101000a900460ff161515151581525050905060508160200151101580156101e6575080604001515b156101f55760019150506101fa565b5f9150505b919050565b5f602052805f5260405f205f91509050805f01805461021d906106b4565b80601f0160208091040260200160405190810160405280929190818152602001828054610249906106b4565b80156102945780601f1061026b57610100808354040283529160200191610294565b820191905f5260205f20905b81548152906001019060200180831161027757829003601f168201915b505050505090806001015490806002015f9054906101000a900460ff16905083565b60015481565b5f60015f8154809291906102cf90610711565b919050555060405180606001604052808581526020018481526020018315158152505f8060015481526020019081526020015f205f820151815f01908161031691906108f5565b50602082015181600101556040820151816002015f6101000a81548160ff02191690831515021790555090505060015490509392505050565b5f604051905090565b5f80fd5b5f80fd5b5f819050919050565b61037281610360565b811461037c575f80fd5b50565b5f8135905061038d81610369565b92915050565b5f602082840312156103a8576103a7610358565b5b5f6103b58482850161037f565b91505092915050565b5f8115159050919050565b6103d2816103be565b82525050565b5f6020820190506103eb5f8301846103c9565b92915050565b5f81519050919050565b5f82825260208201905092915050565b8281835e5f83830152505050565b5f601f19601f8301169050919050565b5f610433826103f1565b61043d81856103fb565b935061044d81856020860161040b565b61045681610419565b840191505092915050565b61046a81610360565b82525050565b5f6060820190508181035f8301526104888186610429565b90506104976020830185610461565b6104a460408301846103c9565b949350505050565b5f6020820190506104bf5f830184610461565b92915050565b5f80fd5b5f80fd5b7f4e487b71000000000000000000000000000000000000000000000000000000005f52604160045260245ffd5b61050382610419565b810181811067ffffffffffffffff82111715610522576105216104cd565b5b80604052505050565b5f61053461034f565b905061054082826104fa565b919050565b5f67ffffffffffffffff82111561055f5761055e6104cd565b5b61056882610419565b9050602081019050919050565b828183375f83830152505050565b5f61059561059084610545565b61052b565b9050828152602081018484840111156105b1576105b06104c9565b5b6105bc848285610575565b509392505050565b5f82601f8301126105d8576105d76104c5565b5b81356105e8848260208601610583565b91505092915050565b6105fa816103be565b8114610604575f80fd5b50565b5f81359050610615816105f1565b92915050565b5f805f6060848603121561063257610631610358565b5b5f84013567ffffffffffffffff81111561064f5761064e61035c565b5b61065b868287016105c4565b935050602061066c8682870161037f565b925050604061067d86828701610607565b9150509250925092565b7f4e487b71000000000000000000000000000000000000000000000000000000005f52602260045260245ffd5b5f60028204905060018216806106cb57607f821691505b6020821081036106de576106dd610687565b5b50919050565b7f4e487b71000000000000000000000000000000000000000000000000000000005f52601160045260245ffd5b5f61071b82610360565b91507fffffffffffffffffffffffffffffffffffffffffffffffffffffffffffffffff820361074d5761074c6106e4565b5b600182019050919050565b5f819050815f5260205f209050919050565b5f6020601f8301049050919050565b5f82821b905092915050565b5f600883026107b47fffffffffffffffffffffffffffffffffffffffffffffffffffffffffffffffff82610779565b6107be8683610779565b95508019841693508086168417925050509392505050565b5f819050919050565b5f6107f96107f46107ef84610360565b6107d6565b610360565b9050919050565b5f819050919050565b610812836107df565b61082661081e82610800565b848454610785565b825550505050565b5f90565b61083a61082e565b610845818484610809565b505050565b5b818110156108685761085d5f82610832565b60018101905061084b565b5050565b601f8211156108ad5761087e81610758565b6108878461076a565b81016020851015610896578190505b6108aa6108a28561076a565b83018261084a565b50505b505050565b5f82821c905092915050565b5f6108cd5f19846008026108b2565b1980831691505092915050565b5f6108e583836108be565b9150826002028217905092915050565b6108fe826103f1565b67ffffffffffffffff811115610917576109166104cd565b5b61092182546106b4565b61092c82828561086c565b5f60209050601f83116001811461095d575f841561094b578287015190505b61095585826108da565b8655506109bc565b601f19841661096b86610758565b5f5b828110156109925784890151825560018201915060208501945060208101905061096d565b868310156109af57848901516109ab601f8916826108be565b8355505b6001600288020188555050505b50505050505056fea2646970667358221220c1fd2d06254dcf8c2c6ba55ce993b70b5c87bcee41649d9d0a5fe7a6d127e6b264736f6c634300081a0033', \n     arguments: [\n     ]\n}).send({\n     from: web3.eth.accounts[0], \n     gas: '4700000'\n   }, function (e, contract){\n    console.log(e, contract);\n    if (typeof contract.address !== 'undefined') {\n         console.log('Contract mined! address: ' + contract.address + ' transactionHash: ' + contract.transactionHash);\n    }\n })",
	"functionHashes": {
		"efd57a33": "addProduct(string,uint256,bool)",
		"e0f6ef87": "productCount()",
		"7acc0b20": "products(uint256)",
		"524e8462": "verifyProduct(uint256)"
	},
	"gasEstimates": {
		"Creation": {
			"codeDepositCost": "510800",
			"executionCost": "5546",
			"totalCost": "516346"
		},
		"External": {
			"addProduct(string,uint256,bool)": "infinite",
			"productCount()": "2447",
			"products(uint256)": "infinite",
			"verifyProduct(uint256)": "infinite"
		}
	},
	"devdoc": {
		"kind": "dev",
		"methods": {},
		"version": 1
	},
	"userdoc": {
		"kind": "user",
		"methods": {},
		"version": 1
	},
	"Runtime Bytecode": {
		"immutableReferences": {},
		"linkReferences": {},
		"object": "608060405234801561000f575f80fd5b506004361061004a575f3560e01c8063524e84621461004e5780637acc0b201461007e578063e0f6ef87146100b0578063efd57a33146100ce575b5f80fd5b61006860048036038101906100639190610393565b6100fe565b60405161007591906103d8565b60405180910390f35b61009860048036038101906100939190610393565b6101ff565b6040516100a793929190610470565b60405180910390f35b6100b86102b6565b6040516100c591906104ac565b60405180910390f35b6100e860048036038101906100e3919061061b565b6102bc565b6040516100f591906104ac565b60405180910390f35b5f805f808481526020019081526020015f206040518060600160405290815f8201805461012a906106b4565b80601f0160208091040260200160405190810160405280929190818152602001828054610156906106b4565b80156101a15780601f10610178576101008083540402835291602001916101a1565b820191905f5260205f20905b81548152906001019060200180831161018457829003601f168201915b5050505050815260200160018201548152602001600282015f9054906101000a900460ff161515151581525050905060508160200151101580156101e6575080604001515b156101f55760019150506101fa565b5f9150505b919050565b5f602052805f5260405f205f91509050805f01805461021d906106b4565b80601f0160208091040260200160405190810160405280929190818152602001828054610249906106b4565b80156102945780601f1061026b57610100808354040283529160200191610294565b820191905f5260205f20905b81548152906001019060200180831161027757829003601f168201915b505050505090806001015490806002015f9054906101000a900460ff16905083565b60015481565b5f60015f8154809291906102cf90610711565b919050555060405180606001604052808581526020018481526020018315158152505f8060015481526020019081526020015f205f820151815f01908161031691906108f5565b50602082015181600101556040820151816002015f6101000a81548160ff02191690831515021790555090505060015490509392505050565b5f604051905090565b5f80fd5b5f80fd5b5f819050919050565b61037281610360565b811461037c575f80fd5b50565b5f8135905061038d81610369565b92915050565b5f602082840312156103a8576103a7610358565b5b5f6103b58482850161037f565b91505092915050565b5f8115159050919050565b6103d2816103be565b82525050565b5f6020820190506103eb5f8301846103c9565b92915050565b5f81519050919050565b5f82825260208201905092915050565b8281835e5f83830152505050565b5f601f19601f8301169050919050565b5f610433826103f1565b61043d81856103fb565b935061044d81856020860161040b565b61045681610419565b840191505092915050565b61046a81610360565b82525050565b5f6060820190508181035f8301526104888186610429565b90506104976020830185610461565b6104a460408301846103c9565b949350505050565b5f6020820190506104bf5f830184610461565b92915050565b5f80fd5b5f80fd5b7f4e487b71000000000000000000000000000000000000000000000000000000005f52604160045260245ffd5b61050382610419565b810181811067ffffffffffffffff82111715610522576105216104cd565b5b80604052505050565b5f61053461034f565b905061054082826104fa565b919050565b5f67ffffffffffffffff82111561055f5761055e6104cd565b5b61056882610419565b9050602081019050919050565b828183375f83830152505050565b5f61059561059084610545565b61052b565b9050828152602081018484840111156105b1576105b06104c9565b5b6105bc848285610575565b509392505050565b5f82601f8301126105d8576105d76104c5565b5b81356105e8848260208601610583565b91505092915050565b6105fa816103be565b8114610604575f80fd5b50565b5f81359050610615816105f1565b92915050565b5f805f6060848603121561063257610631610358565b5b5f84013567ffffffffffffffff81111561064f5761064e61035c565b5b61065b868287016105c4565b935050602061066c8682870161037f565b925050604061067d86828701610607565b9150509250925092565b7f4e487b71000000000000000000000000000000000000000000000000000000005f52602260045260245ffd5b5f60028204905060018216806106cb57607f821691505b6020821081036106de576106dd610687565b5b50919050565b7f4e487b71000000000000000000000000000000000000000000000000000000005f52601160045260245ffd5b5f61071b82610360565b91507fffffffffffffffffffffffffffffffffffffffffffffffffffffffffffffffff820361074d5761074c6106e4565b5b600182019050919050565b5f819050815f5260205f209050919050565b5f6020601f8301049050919050565b5f82821b905092915050565b5f600883026107b47fffffffffffffffffffffffffffffffffffffffffffffffffffffffffffffffff82610779565b6107be8683610779565b95508019841693508086168417925050509392505050565b5f819050919050565b5f6107f96107f46107ef84610360565b6107d6565b610360565b9050919050565b5f819050919050565b610812836107df565b61082661081e82610800565b848454610785565b825550505050565b5f90565b61083a61082e565b610845818484610809565b505050565b5b818110156108685761085d5f82610832565b60018101905061084b565b5050565b601f8211156108ad5761087e81610758565b6108878461076a565b81016020851015610896578190505b6108aa6108a28561076a565b83018261084a565b50505b505050565b5f82821c905092915050565b5f6108cd5f19846008026108b2565b1980831691505092915050565b5f6108e583836108be565b9150826002028217905092915050565b6108fe826103f1565b67ffffffffffffffff811115610917576109166104cd565b5b61092182546106b4565b61092c82828561086c565b5f60209050601f83116001811461095d575f841561094b578287015190505b61095585826108da565b8655506109bc565b601f19841661096b86610758565b5f5b828110156109925784890151825560018201915060208501945060208101905061096d565b868310156109af57848901516109ab601f8916826108be565b8355505b6001600288020188555050505b50505050505056fea2646970667358221220c1fd2d06254dcf8c2c6ba55ce993b70b5c87bcee41649d9d0a5fe7a6d127e6b264736f6c634300081a0033",
		"opcodes": "PUSH1 0x80 PUSH1 0x40 MSTORE CALLVALUE DUP1 ISZERO PUSH2 0xF JUMPI PUSH0 DUP1 REVERT JUMPDEST POP PUSH1 0x4 CALLDATASIZE LT PUSH2 0x4A JUMPI PUSH0 CALLDATALOAD PUSH1 0xE0 SHR DUP1 PUSH4 0x524E8462 EQ PUSH2 0x4E JUMPI DUP1 PUSH4 0x7ACC0B20 EQ PUSH2 0x7E JUMPI DUP1 PUSH4 0xE0F6EF87 EQ PUSH2 0xB0 JUMPI DUP1 PUSH4 0xEFD57A33 EQ PUSH2 0xCE JUMPI JUMPDEST PUSH0 DUP1 REVERT JUMPDEST PUSH2 0x68 PUSH1 0x4 DUP1 CALLDATASIZE SUB DUP2 ADD SWAP1 PUSH2 0x63 SWAP2 SWAP1 PUSH2 0x393 JUMP JUMPDEST PUSH2 0xFE JUMP JUMPDEST PUSH1 0x40 MLOAD PUSH2 0x75 SWAP2 SWAP1 PUSH2 0x3D8 JUMP JUMPDEST PUSH1 0x40 MLOAD DUP1 SWAP2 SUB SWAP1 RETURN JUMPDEST PUSH2 0x98 PUSH1 0x4 DUP1 CALLDATASIZE SUB DUP2 ADD SWAP1 PUSH2 0x93 SWAP2 SWAP1 PUSH2 0x393 JUMP JUMPDEST PUSH2 0x1FF JUMP JUMPDEST PUSH1 0x40 MLOAD PUSH2 0xA7 SWAP4 SWAP3 SWAP2 SWAP1 PUSH2 0x470 JUMP JUMPDEST PUSH1 0x40 MLOAD DUP1 SWAP2 SUB SWAP1 RETURN JUMPDEST PUSH2 0xB8 PUSH2 0x2B6 JUMP JUMPDEST PUSH1 0x40 MLOAD PUSH2 0xC5 SWAP2 SWAP1 PUSH2 0x4AC JUMP JUMPDEST PUSH1 0x40 MLOAD DUP1 SWAP2 SUB SWAP1 RETURN JUMPDEST PUSH2 0xE8 PUSH1 0x4 DUP1 CALLDATASIZE SUB DUP2 ADD SWAP1 PUSH2 0xE3 SWAP2 SWAP1 PUSH2 0x61B JUMP JUMPDEST PUSH2 0x2BC JUMP JUMPDEST PUSH1 0x40 MLOAD PUSH2 0xF5 SWAP2 SWAP1 PUSH2 0x4AC JUMP JUMPDEST PUSH1 0x40 MLOAD DUP1 SWAP2 SUB SWAP1 RETURN JUMPDEST PUSH0 DUP1 PUSH0 DUP1 DUP5 DUP2 MSTORE PUSH1 0x20 ADD SWAP1 DUP2 MSTORE PUSH1 0x20 ADD PUSH0 KECCAK256 PUSH1 0x40 MLOAD DUP1 PUSH1 0x60 ADD PUSH1 0x40 MSTORE SWAP1 DUP2 PUSH0 DUP3 ADD DUP1 SLOAD PUSH2 0x12A SWAP1 PUSH2 0x6B4 JUMP JUMPDEST DUP1 PUSH1 0x1F ADD PUSH1 0x20 DUP1 SWAP2 DIV MUL PUSH1 0x20 ADD PUSH1 0x40 MLOAD SWAP1 DUP2 ADD PUSH1 0x40 MSTORE DUP1 SWAP3 SWAP2 SWAP1 DUP2 DUP2 MSTORE PUSH1 0x20 ADD DUP3 DUP1 SLOAD PUSH2 0x156 SWAP1 PUSH2 0x6B4 JUMP JUMPDEST DUP1 ISZERO PUSH2 0x1A1 JUMPI DUP1 PUSH1 0x1F LT PUSH2 0x178 JUMPI PUSH2 0x100 DUP1 DUP4 SLOAD DIV MUL DUP4 MSTORE SWAP2 PUSH1 0x20 ADD SWAP2 PUSH2 0x1A1 JUMP JUMPDEST DUP3 ADD SWAP2 SWAP1 PUSH0 MSTORE PUSH1 0x20 PUSH0 KECCAK256 SWAP1 JUMPDEST DUP2 SLOAD DUP2 MSTORE SWAP1 PUSH1 0x1 ADD SWAP1 PUSH1 0x20 ADD DUP1 DUP4 GT PUSH2 0x184 JUMPI DUP3 SWAP1 SUB PUSH1 0x1F AND DUP3 ADD SWAP2 JUMPDEST POP POP POP POP POP DUP2 MSTORE PUSH1 0x20 ADD PUSH1 0x1 DUP3 ADD SLOAD DUP2 MSTORE PUSH1 0x20 ADD PUSH1 0x2 DUP3 ADD PUSH0 SWAP1 SLOAD SWAP1 PUSH2 0x100 EXP SWAP1 DIV PUSH1 0xFF AND ISZERO ISZERO ISZERO ISZERO DUP2 MSTORE POP POP SWAP1 POP PUSH1 0x50 DUP2 PUSH1 0x20 ADD MLOAD LT ISZERO DUP1 ISZERO PUSH2 0x1E6 JUMPI POP DUP1 PUSH1 0x40 ADD MLOAD JUMPDEST ISZERO PUSH2 0x1F5 JUMPI PUSH1 0x1 SWAP2 POP POP PUSH2 0x1FA JUMP JUMPDEST PUSH0 SWAP2 POP POP JUMPDEST SWAP2 SWAP1 POP JUMP JUMPDEST PUSH0 PUSH1 0x20 MSTORE DUP1 PUSH0 MSTORE PUSH1 0x40 PUSH0 KECCAK256 PUSH0 SWAP2 POP SWAP1 POP DUP1 PUSH0 ADD DUP1 SLOAD PUSH2 0x21D SWAP1 PUSH2 0x6B4 JUMP JUMPDEST DUP1 PUSH1 0x1F ADD PUSH1 0x20 DUP1 SWAP2 DIV MUL PUSH1 0x20 ADD PUSH1 0x40 MLOAD SWAP1 DUP2 ADD PUSH1 0x40 MSTORE DUP1 SWAP3 SWAP2 SWAP1 DUP2 DUP2 MSTORE PUSH1 0x20 ADD DUP3 DUP1 SLOAD PUSH2 0x249 SWAP1 PUSH2 0x6B4 JUMP JUMPDEST DUP1 ISZERO PUSH2 0x294 JUMPI DUP1 PUSH1 0x1F LT PUSH2 0x26B JUMPI PUSH2 0x100 DUP1 DUP4 SLOAD DIV MUL DUP4 MSTORE SWAP2 PUSH1 0x20 ADD SWAP2 PUSH2 0x294 JUMP JUMPDEST DUP3 ADD SWAP2 SWAP1 PUSH0 MSTORE PUSH1 0x20 PUSH0 KECCAK256 SWAP1 JUMPDEST DUP2 SLOAD DUP2 MSTORE SWAP1 PUSH1 0x1 ADD SWAP1 PUSH1 0x20 ADD DUP1 DUP4 GT PUSH2 0x277 JUMPI DUP3 SWAP1 SUB PUSH1 0x1F AND DUP3 ADD SWAP2 JUMPDEST POP POP POP POP POP SWAP1 DUP1 PUSH1 0x1 ADD SLOAD SWAP1 DUP1 PUSH1 0x2 ADD PUSH0 SWAP1 SLOAD SWAP1 PUSH2 0x100 EXP SWAP1 DIV PUSH1 0xFF AND SWAP1 POP DUP4 JUMP JUMPDEST PUSH1 0x1 SLOAD DUP2 JUMP JUMPDEST PUSH0 PUSH1 0x1 PUSH0 DUP2 SLOAD DUP1 SWAP3 SWAP2 SWAP1 PUSH2 0x2CF SWAP1 PUSH2 0x711 JUMP JUMPDEST SWAP2 SWAP1 POP SSTORE POP PUSH1 0x40 MLOAD DUP1 PUSH1 0x60 ADD PUSH1 0x40 MSTORE DUP1 DUP6 DUP2 MSTORE PUSH1 0x20 ADD DUP5 DUP2 MSTORE PUSH1 0x20 ADD DUP4 ISZERO ISZERO DUP2 MSTORE POP PUSH0 DUP1 PUSH1 0x1 SLOAD DUP2 MSTORE PUSH1 0x20 ADD SWAP1 DUP2 MSTORE PUSH1 0x20 ADD PUSH0 KECCAK256 PUSH0 DUP3 ADD MLOAD DUP2 PUSH0 ADD SWAP1 DUP2 PUSH2 0x316 SWAP2 SWAP1 PUSH2 0x8F5 JUMP JUMPDEST POP PUSH1 0x20 DUP3 ADD MLOAD DUP2 PUSH1 0x1 ADD SSTORE PUSH1 0x40 DUP3 ADD MLOAD DUP2 PUSH1 0x2 ADD PUSH0 PUSH2 0x100 EXP DUP2 SLOAD DUP2 PUSH1 0xFF MUL NOT AND SWAP1 DUP4 ISZERO ISZERO MUL OR SWAP1 SSTORE POP SWAP1 POP POP PUSH1 0x1 SLOAD SWAP1 POP SWAP4 SWAP3 POP POP POP JUMP JUMPDEST PUSH0 PUSH1 0x40 MLOAD SWAP1 POP SWAP1 JUMP JUMPDEST PUSH0 DUP1 REVERT JUMPDEST PUSH0 DUP1 REVERT JUMPDEST PUSH0 DUP2 SWAP1 POP SWAP2 SWAP1 POP JUMP JUMPDEST PUSH2 0x372 DUP2 PUSH2 0x360 JUMP JUMPDEST DUP2 EQ PUSH2 0x37C JUMPI PUSH0 DUP1 REVERT JUMPDEST POP JUMP JUMPDEST PUSH0 DUP2 CALLDATALOAD SWAP1 POP PUSH2 0x38D DUP2 PUSH2 0x369 JUMP JUMPDEST SWAP3 SWAP2 POP POP JUMP JUMPDEST PUSH0 PUSH1 0x20 DUP3 DUP5 SUB SLT ISZERO PUSH2 0x3A8 JUMPI PUSH2 0x3A7 PUSH2 0x358 JUMP JUMPDEST JUMPDEST PUSH0 PUSH2 0x3B5 DUP5 DUP3 DUP6 ADD PUSH2 0x37F JUMP JUMPDEST SWAP2 POP POP SWAP3 SWAP2 POP POP JUMP JUMPDEST PUSH0 DUP2 ISZERO ISZERO SWAP1 POP SWAP2 SWAP1 POP JUMP JUMPDEST PUSH2 0x3D2 DUP2 PUSH2 0x3BE JUMP JUMPDEST DUP3 MSTORE POP POP JUMP JUMPDEST PUSH0 PUSH1 0x20 DUP3 ADD SWAP1 POP PUSH2 0x3EB PUSH0 DUP4 ADD DUP5 PUSH2 0x3C9 JUMP JUMPDEST SWAP3 SWAP2 POP POP JUMP JUMPDEST PUSH0 DUP2 MLOAD SWAP1 POP SWAP2 SWAP1 POP JUMP JUMPDEST PUSH0 DUP3 DUP3 MSTORE PUSH1 0x20 DUP3 ADD SWAP1 POP SWAP3 SWAP2 POP POP JUMP JUMPDEST DUP3 DUP2 DUP4 MCOPY PUSH0 DUP4 DUP4 ADD MSTORE POP POP POP JUMP JUMPDEST PUSH0 PUSH1 0x1F NOT PUSH1 0x1F DUP4 ADD AND SWAP1 POP SWAP2 SWAP1 POP JUMP JUMPDEST PUSH0 PUSH2 0x433 DUP3 PUSH2 0x3F1 JUMP JUMPDEST PUSH2 0x43D DUP2 DUP6 PUSH2 0x3FB JUMP JUMPDEST SWAP4 POP PUSH2 0x44D DUP2 DUP6 PUSH1 0x20 DUP7 ADD PUSH2 0x40B JUMP JUMPDEST PUSH2 0x456 DUP2 PUSH2 0x419 JUMP JUMPDEST DUP5 ADD SWAP2 POP POP SWAP3 SWAP2 POP POP JUMP JUMPDEST PUSH2 0x46A DUP2 PUSH2 0x360 JUMP JUMPDEST DUP3 MSTORE POP POP JUMP JUMPDEST PUSH0 PUSH1 0x60 DUP3 ADD SWAP1 POP DUP2 DUP2 SUB PUSH0 DUP4 ADD MSTORE PUSH2 0x488 DUP2 DUP7 PUSH2 0x429 JUMP JUMPDEST SWAP1 POP PUSH2 0x497 PUSH1 0x20 DUP4 ADD DUP6 PUSH2 0x461 JUMP JUMPDEST PUSH2 0x4A4 PUSH1 0x40 DUP4 ADD DUP5 PUSH2 0x3C9 JUMP JUMPDEST SWAP5 SWAP4 POP POP POP POP JUMP JUMPDEST PUSH0 PUSH1 0x20 DUP3 ADD SWAP1 POP PUSH2 0x4BF PUSH0 DUP4 ADD DUP5 PUSH2 0x461 JUMP JUMPDEST SWAP3 SWAP2 POP POP JUMP JUMPDEST PUSH0 DUP1 REVERT JUMPDEST PUSH0 DUP1 REVERT JUMPDEST PUSH32 0x4E487B7100000000000000000000000000000000000000000000000000000000 PUSH0 MSTORE PUSH1 0x41 PUSH1 0x4 MSTORE PUSH1 0x24 PUSH0 REVERT JUMPDEST PUSH2 0x503 DUP3 PUSH2 0x419 JUMP JUMPDEST DUP2 ADD DUP2 DUP2 LT PUSH8 0xFFFFFFFFFFFFFFFF DUP3 GT OR ISZERO PUSH2 0x522 JUMPI PUSH2 0x521 PUSH2 0x4CD JUMP JUMPDEST JUMPDEST DUP1 PUSH1 0x40 MSTORE POP POP POP JUMP JUMPDEST PUSH0 PUSH2 0x534 PUSH2 0x34F JUMP JUMPDEST SWAP1 POP PUSH2 0x540 DUP3 DUP3 PUSH2 0x4FA JUMP JUMPDEST SWAP2 SWAP1 POP JUMP JUMPDEST PUSH0 PUSH8 0xFFFFFFFFFFFFFFFF DUP3 GT ISZERO PUSH2 0x55F JUMPI PUSH2 0x55E PUSH2 0x4CD JUMP JUMPDEST JUMPDEST PUSH2 0x568 DUP3 PUSH2 0x419 JUMP JUMPDEST SWAP1 POP PUSH1 0x20 DUP2 ADD SWAP1 POP SWAP2 SWAP1 POP JUMP JUMPDEST DUP3 DUP2 DUP4 CALLDATACOPY PUSH0 DUP4 DUP4 ADD MSTORE POP POP POP JUMP JUMPDEST PUSH0 PUSH2 0x595 PUSH2 0x590 DUP5 PUSH2 0x545 JUMP JUMPDEST PUSH2 0x52B JUMP JUMPDEST SWAP1 POP DUP3 DUP2 MSTORE PUSH1 0x20 DUP2 ADD DUP5 DUP5 DUP5 ADD GT ISZERO PUSH2 0x5B1 JUMPI PUSH2 0x5B0 PUSH2 0x4C9 JUMP JUMPDEST JUMPDEST PUSH2 0x5BC DUP5 DUP3 DUP6 PUSH2 0x575 JUMP JUMPDEST POP SWAP4 SWAP3 POP POP POP JUMP JUMPDEST PUSH0 DUP3 PUSH1 0x1F DUP4 ADD SLT PUSH2 0x5D8 JUMPI PUSH2 0x5D7 PUSH2 0x4C5 JUMP JUMPDEST JUMPDEST DUP2 CALLDATALOAD PUSH2 0x5E8 DUP5 DUP3 PUSH1 0x20 DUP7 ADD PUSH2 0x583 JUMP JUMPDEST SWAP2 POP POP SWAP3 SWAP2 POP POP JUMP JUMPDEST PUSH2 0x5FA DUP2 PUSH2 0x3BE JUMP JUMPDEST DUP2 EQ PUSH2 0x604 JUMPI PUSH0 DUP1 REVERT JUMPDEST POP JUMP JUMPDEST PUSH0 DUP2 CALLDATALOAD SWAP1 POP PUSH2 0x615 DUP2 PUSH2 0x5F1 JUMP JUMPDEST SWAP3 SWAP2 POP POP JUMP JUMPDEST PUSH0 DUP1 PUSH0 PUSH1 0x60 DUP5 DUP7 SUB SLT ISZERO PUSH2 0x632 JUMPI PUSH2 0x631 PUSH2 0x358 JUMP JUMPDEST JUMPDEST PUSH0 DUP5 ADD CALLDATALOAD PUSH8 0xFFFFFFFFFFFFFFFF DUP2 GT ISZERO PUSH2 0x64F JUMPI PUSH2 0x64E PUSH2 0x35C JUMP JUMPDEST JUMPDEST PUSH2 0x65B DUP7 DUP3 DUP8 ADD PUSH2 0x5C4 JUMP JUMPDEST SWAP4 POP POP PUSH1 0x20 PUSH2 0x66C DUP7 DUP3 DUP8 ADD PUSH2 0x37F JUMP JUMPDEST SWAP3 POP POP PUSH1 0x40 PUSH2 0x67D DUP7 DUP3 DUP8 ADD PUSH2 0x607 JUMP JUMPDEST SWAP2 POP POP SWAP3 POP SWAP3 POP SWAP3 JUMP JUMPDEST PUSH32 0x4E487B7100000000000000000000000000000000000000000000000000000000 PUSH0 MSTORE PUSH1 0x22 PUSH1 0x4 MSTORE PUSH1 0x24 PUSH0 REVERT JUMPDEST PUSH0 PUSH1 0x2 DUP3 DIV SWAP1 POP PUSH1 0x1 DUP3 AND DUP1 PUSH2 0x6CB JUMPI PUSH1 0x7F DUP3 AND SWAP2 POP JUMPDEST PUSH1 0x20 DUP3 LT DUP2 SUB PUSH2 0x6DE JUMPI PUSH2 0x6DD PUSH2 0x687 JUMP JUMPDEST JUMPDEST POP SWAP2 SWAP1 POP JUMP JUMPDEST PUSH32 0x4E487B7100000000000000000000000000000000000000000000000000000000 PUSH0 MSTORE PUSH1 0x11 PUSH1 0x4 MSTORE PUSH1 0x24 PUSH0 REVERT JUMPDEST PUSH0 PUSH2 0x71B DUP3 PUSH2 0x360 JUMP JUMPDEST SWAP2 POP PUSH32 0xFFFFFFFFFFFFFFFFFFFFFFFFFFFFFFFFFFFFFFFFFFFFFFFFFFFFFFFFFFFFFFFF DUP3 SUB PUSH2 0x74D JUMPI PUSH2 0x74C PUSH2 0x6E4 JUMP JUMPDEST JUMPDEST PUSH1 0x1 DUP3 ADD SWAP1 POP SWAP2 SWAP1 POP JUMP JUMPDEST PUSH0 DUP2 SWAP1 POP DUP2 PUSH0 MSTORE PUSH1 0x20 PUSH0 KECCAK256 SWAP1 POP SWAP2 SWAP1 POP JUMP JUMPDEST PUSH0 PUSH1 0x20 PUSH1 0x1F DUP4 ADD DIV SWAP1 POP SWAP2 SWAP1 POP JUMP JUMPDEST PUSH0 DUP3 DUP3 SHL SWAP1 POP SWAP3 SWAP2 POP POP JUMP JUMPDEST PUSH0 PUSH1 0x8 DUP4 MUL PUSH2 0x7B4 PUSH32 0xFFFFFFFFFFFFFFFFFFFFFFFFFFFFFFFFFFFFFFFFFFFFFFFFFFFFFFFFFFFFFFFF DUP3 PUSH2 0x779 JUMP JUMPDEST PUSH2 0x7BE DUP7 DUP4 PUSH2 0x779 JUMP JUMPDEST SWAP6 POP DUP1 NOT DUP5 AND SWAP4 POP DUP1 DUP7 AND DUP5 OR SWAP3 POP POP POP SWAP4 SWAP3 POP POP POP JUMP JUMPDEST PUSH0 DUP2 SWAP1 POP SWAP2 SWAP1 POP JUMP JUMPDEST PUSH0 PUSH2 0x7F9 PUSH2 0x7F4 PUSH2 0x7EF DUP5 PUSH2 0x360 JUMP JUMPDEST PUSH2 0x7D6 JUMP JUMPDEST PUSH2 0x360 JUMP JUMPDEST SWAP1 POP SWAP2 SWAP1 POP JUMP JUMPDEST PUSH0 DUP2 SWAP1 POP SWAP2 SWAP1 POP JUMP JUMPDEST PUSH2 0x812 DUP4 PUSH2 0x7DF JUMP JUMPDEST PUSH2 0x826 PUSH2 0x81E DUP3 PUSH2 0x800 JUMP JUMPDEST DUP5 DUP5 SLOAD PUSH2 0x785 JUMP JUMPDEST DUP3 SSTORE POP POP POP POP JUMP JUMPDEST PUSH0 SWAP1 JUMP JUMPDEST PUSH2 0x83A PUSH2 0x82E JUMP JUMPDEST PUSH2 0x845 DUP2 DUP5 DUP5 PUSH2 0x809 JUMP JUMPDEST POP POP POP JUMP JUMPDEST JUMPDEST DUP2 DUP2 LT ISZERO PUSH2 0x868 JUMPI PUSH2 0x85D PUSH0 DUP3 PUSH2 0x832 JUMP JUMPDEST PUSH1 0x1 DUP2 ADD SWAP1 POP PUSH2 0x84B JUMP JUMPDEST POP POP JUMP JUMPDEST PUSH1 0x1F DUP3 GT ISZERO PUSH2 0x8AD JUMPI PUSH2 0x87E DUP2 PUSH2 0x758 JUMP JUMPDEST PUSH2 0x887 DUP5 PUSH2 0x76A JUMP JUMPDEST DUP2 ADD PUSH1 0x20 DUP6 LT ISZERO PUSH2 0x896 JUMPI DUP2 SWAP1 POP JUMPDEST PUSH2 0x8AA PUSH2 0x8A2 DUP6 PUSH2 0x76A JUMP JUMPDEST DUP4 ADD DUP3 PUSH2 0x84A JUMP JUMPDEST POP POP JUMPDEST POP POP POP JUMP JUMPDEST PUSH0 DUP3 DUP3 SHR SWAP1 POP SWAP3 SWAP2 POP POP JUMP JUMPDEST PUSH0 PUSH2 0x8CD PUSH0 NOT DUP5 PUSH1 0x8 MUL PUSH2 0x8B2 JUMP JUMPDEST NOT DUP1 DUP4 AND SWAP2 POP POP SWAP3 SWAP2 POP POP JUMP JUMPDEST PUSH0 PUSH2 0x8E5 DUP4 DUP4 PUSH2 0x8BE JUMP JUMPDEST SWAP2 POP DUP3 PUSH1 0x2 MUL DUP3 OR SWAP1 POP SWAP3 SWAP2 POP POP JUMP JUMPDEST PUSH2 0x8FE DUP3 PUSH2 0x3F1 JUMP JUMPDEST PUSH8 0xFFFFFFFFFFFFFFFF DUP2 GT ISZERO PUSH2 0x917 JUMPI PUSH2 0x916 PUSH2 0x4CD JUMP JUMPDEST JUMPDEST PUSH2 0x921 DUP3 SLOAD PUSH2 0x6B4 JUMP JUMPDEST PUSH2 0x92C DUP3 DUP3 DUP6 PUSH2 0x86C JUMP JUMPDEST PUSH0 PUSH1 0x20 SWAP1 POP PUSH1 0x1F DUP4 GT PUSH1 0x1 DUP2 EQ PUSH2 0x95D JUMPI PUSH0 DUP5 ISZERO PUSH2 0x94B JUMPI DUP3 DUP8 ADD MLOAD SWAP1 POP JUMPDEST PUSH2 0x955 DUP6 DUP3 PUSH2 0x8DA JUMP JUMPDEST DUP7 SSTORE POP PUSH2 0x9BC JUMP JUMPDEST PUSH1 0x1F NOT DUP5 AND PUSH2 0x96B DUP7 PUSH2 0x758 JUMP JUMPDEST PUSH0 JUMPDEST DUP3 DUP2 LT ISZERO PUSH2 0x992 JUMPI DUP5 DUP10 ADD MLOAD DUP3 SSTORE PUSH1 0x1 DUP3 ADD SWAP2 POP PUSH1 0x20 DUP6 ADD SWAP5 POP PUSH1 0x20 DUP2 ADD SWAP1 POP PUSH2 0x96D JUMP JUMPDEST DUP7 DUP4 LT ISZERO PUSH2 0x9AF JUMPI DUP5 DUP10 ADD MLOAD PUSH2 0x9AB PUSH1 0x1F DUP10 AND DUP3 PUSH2 0x8BE JUMP JUMPDEST DUP4 SSTORE POP JUMPDEST PUSH1 0x1 PUSH1 0x2 DUP9 MUL ADD DUP9 SSTORE POP POP POP JUMPDEST POP POP POP POP POP POP JUMP INVALID LOG2 PUSH5 0x6970667358 0x22 SLT KECCAK256 0xC1 REVERT 0x2D MOD 0x25 0x4D 0xCF DUP13 0x2C PUSH12 0xA55CE993B70B5C87BCEE4164 SWAP14 SWAP14 EXP PUSH0 0xE7 0xA6 0xD1 0x27 0xE6 0xB2 PUSH5 0x736F6C6343 STOP ADDMOD BYTE STOP CALLER "
	},
	"Assembly": ".code\n  PUSH 80\t\t\tcontract ProductCertification ...\n  PUSH 40\t\t\tcontract ProductCertification ...\n  MSTORE \t\t\tcontract ProductCertification ...\n  PUSH 0\t\t\t0\n  PUSH 1\t\t\tuint256 public productCount = ...\n  SSTORE \t\t\tuint256 public productCount = ...\n  CALLVALUE \t\t\tcontract ProductCertification ...\n  DUP1 \t\t\tcontract ProductCertification ...\n  ISZERO \t\t\tcontract ProductCertification ...\n  PUSH [tag] 1\t\t\tcontract ProductCertification ...\n  JUMPI \t\t\tcontract ProductCertification ...\n  PUSH 0\t\t\tcontract ProductCertification ...\n  DUP1 \t\t\tcontract ProductCertification ...\n  REVERT \t\t\tcontract ProductCertification ...\ntag 1\t\t\tcontract ProductCertification ...\n  JUMPDEST \t\t\tcontract ProductCertification ...\n  POP \t\t\tcontract ProductCertification ...\n  PUSH #[$] 0000000000000000000000000000000000000000000000000000000000000000\t\t\tcontract ProductCertification ...\n  DUP1 \t\t\tcontract ProductCertification ...\n  PUSH [$] 0000000000000000000000000000000000000000000000000000000000000000\t\t\tcontract ProductCertification ...\n  PUSH 0\t\t\tcontract ProductCertification ...\n  CODECOPY \t\t\tcontract ProductCertification ...\n  PUSH 0\t\t\tcontract ProductCertification ...\n  RETURN \t\t\tcontract ProductCertification ...\n.data\n  0:\n    .code\n      PUSH 80\t\t\tcontract ProductCertification ...\n      PUSH 40\t\t\tcontract ProductCertification ...\n      MSTORE \t\t\tcontract ProductCertification ...\n      CALLVALUE \t\t\tcontract ProductCertification ...\n      DUP1 \t\t\tcontract ProductCertification ...\n      ISZERO \t\t\tcontract ProductCertification ...\n      PUSH [tag] 1\t\t\tcontract ProductCertification ...\n      JUMPI \t\t\tcontract ProductCertification ...\n      PUSH 0\t\t\tcontract ProductCertification ...\n      DUP1 \t\t\tcontract ProductCertification ...\n      REVERT \t\t\tcontract ProductCertification ...\n    tag 1\t\t\tcontract ProductCertification ...\n      JUMPDEST \t\t\tcontract ProductCertification ...\n      POP \t\t\tcontract ProductCertification ...\n      PUSH 4\t\t\tcontract ProductCertification ...\n      CALLDATASIZE \t\t\tcontract ProductCertification ...\n      LT \t\t\tcontract ProductCertification ...\n      PUSH [tag] 2\t\t\tcontract ProductCertification ...\n      JUMPI \t\t\tcontract ProductCertification ...\n      PUSH 0\t\t\tcontract ProductCertification ...\n      CALLDATALOAD \t\t\tcontract ProductCertification ...\n      PUSH E0\t\t\tcontract ProductCertification ...\n      SHR \t\t\tcontract ProductCertification ...\n      DUP1 \t\t\tcontract ProductCertification ...\n      PUSH 524E8462\t\t\tcontract ProductCertification ...\n      EQ \t\t\tcontract ProductCertification ...\n      PUSH [tag] 3\t\t\tcontract ProductCertification ...\n      JUMPI \t\t\tcontract ProductCertification ...\n      DUP1 \t\t\tcontract ProductCertification ...\n      PUSH 7ACC0B20\t\t\tcontract ProductCertification ...\n      EQ \t\t\tcontract ProductCertification ...\n      PUSH [tag] 4\t\t\tcontract ProductCertification ...\n      JUMPI \t\t\tcontract ProductCertification ...\n      DUP1 \t\t\tcontract ProductCertification ...\n      PUSH E0F6EF87\t\t\tcontract ProductCertification ...\n      EQ \t\t\tcontract ProductCertification ...\n      PUSH [tag] 5\t\t\tcontract ProductCertification ...\n      JUMPI \t\t\tcontract ProductCertification ...\n      DUP1 \t\t\tcontract ProductCertification ...\n      PUSH EFD57A33\t\t\tcontract ProductCertification ...\n      EQ \t\t\tcontract ProductCertification ...\n      PUSH [tag] 6\t\t\tcontract ProductCertification ...\n      JUMPI \t\t\tcontract ProductCertification ...\n    tag 2\t\t\tcontract ProductCertification ...\n      JUMPDEST \t\t\tcontract ProductCertification ...\n      PUSH 0\t\t\tcontract ProductCertification ...\n      DUP1 \t\t\tcontract ProductCertification ...\n      REVERT \t\t\tcontract ProductCertification ...\n    tag 3\t\t\tfunction verifyProduct(uint256...\n      JUMPDEST \t\t\tfunction verifyProduct(uint256...\n      PUSH [tag] 7\t\t\tfunction verifyProduct(uint256...\n      PUSH 4\t\t\tfunction verifyProduct(uint256...\n      DUP1 \t\t\tfunction verifyProduct(uint256...\n      CALLDATASIZE \t\t\tfunction verifyProduct(uint256...\n      SUB \t\t\tfunction verifyProduct(uint256...\n      DUP2 \t\t\tfunction verifyProduct(uint256...\n      ADD \t\t\tfunction verifyProduct(uint256...\n      SWAP1 \t\t\tfunction verifyProduct(uint256...\n      PUSH [tag] 8\t\t\tfunction verifyProduct(uint256...\n      SWAP2 \t\t\tfunction verifyProduct(uint256...\n      SWAP1 \t\t\tfunction verifyProduct(uint256...\n      PUSH [tag] 9\t\t\tfunction verifyProduct(uint256...\n      JUMP \t\t\tfunction verifyProduct(uint256...\n    tag 8\t\t\tfunction verifyProduct(uint256...\n      JUMPDEST \t\t\tfunction verifyProduct(uint256...\n      PUSH [tag] 10\t\t\tfunction verifyProduct(uint256...\n      JUMP \t\t\tfunction verifyProduct(uint256...\n    tag 7\t\t\tfunction verifyProduct(uint256...\n      JUMPDEST \t\t\tfunction verifyProduct(uint256...\n      PUSH 40\t\t\tfunction verifyProduct(uint256...\n      MLOAD \t\t\tfunction verifyProduct(uint256...\n      PUSH [tag] 11\t\t\tfunction verifyProduct(uint256...\n      SWAP2 \t\t\tfunction verifyProduct(uint256...\n      SWAP1 \t\t\tfunction verifyProduct(uint256...\n      PUSH [tag] 12\t\t\tfunction verifyProduct(uint256...\n      JUMP \t\t\tfunction verifyProduct(uint256...\n    tag 11\t\t\tfunction verifyProduct(uint256...\n      JUMPDEST \t\t\tfunction verifyProduct(uint256...\n      PUSH 40\t\t\tfunction verifyProduct(uint256...\n      MLOAD \t\t\tfunction verifyProduct(uint256...\n      DUP1 \t\t\tfunction verifyProduct(uint256...\n      SWAP2 \t\t\tfunction verifyProduct(uint256...\n      SUB \t\t\tfunction verifyProduct(uint256...\n      SWAP1 \t\t\tfunction verifyProduct(uint256...\n      RETURN \t\t\tfunction verifyProduct(uint256...\n    tag 4\t\t\tmapping(uint256 => Product) pu...\n      JUMPDEST \t\t\tmapping(uint256 => Product) pu...\n      PUSH [tag] 13\t\t\tmapping(uint256 => Product) pu...\n      PUSH 4\t\t\tmapping(uint256 => Product) pu...\n      DUP1 \t\t\tmapping(uint256 => Product) pu...\n      CALLDATASIZE \t\t\tmapping(uint256 => Product) pu...\n      SUB \t\t\tmapping(uint256 => Product) pu...\n      DUP2 \t\t\tmapping(uint256 => Product) pu...\n      ADD \t\t\tmapping(uint256 => Product) pu...\n      SWAP1 \t\t\tmapping(uint256 => Product) pu...\n      PUSH [tag] 14\t\t\tmapping(uint256 => Product) pu...\n      SWAP2 \t\t\tmapping(uint256 => Product) pu...\n      SWAP1 \t\t\tmapping(uint256 => Product) pu...\n      PUSH [tag] 9\t\t\tmapping(uint256 => Product) pu...\n      JUMP \t\t\tmapping(uint256 => Product) pu...\n    tag 14\t\t\tmapping(uint256 => Product) pu...\n      JUMPDEST \t\t\tmapping(uint256 => Product) pu...\n      PUSH [tag] 15\t\t\tmapping(uint256 => Product) pu...\n      JUMP \t\t\tmapping(uint256 => Product) pu...\n    tag 13\t\t\tmapping(uint256 => Product) pu...\n      JUMPDEST \t\t\tmapping(uint256 => Product) pu...\n      PUSH 40\t\t\tmapping(uint256 => Product) pu...\n      MLOAD \t\t\tmapping(uint256 => Product) pu...\n      PUSH [tag] 16\t\t\tmapping(uint256 => Product) pu...\n      SWAP4 \t\t\tmapping(uint256 => Product) pu...\n      SWAP3 \t\t\tmapping(uint256 => Product) pu...\n      SWAP2 \t\t\tmapping(uint256 => Product) pu...\n      SWAP1 \t\t\tmapping(uint256 => Product) pu...\n      PUSH [tag] 17\t\t\tmapping(uint256 => Product) pu...\n      JUMP \t\t\tmapping(uint256 => Product) pu...\n    tag 16\t\t\tmapping(uint256 => Product) pu...\n      JUMPDEST \t\t\tmapping(uint256 => Product) pu...\n      PUSH 40\t\t\tmapping(uint256 => Product) pu...\n      MLOAD \t\t\tmapping(uint256 => Product) pu...\n      DUP1 \t\t\tmapping(uint256 => Product) pu...\n      SWAP2 \t\t\tmapping(uint256 => Product) pu...\n      SUB \t\t\tmapping(uint256 => Product) pu...\n      SWAP1 \t\t\tmapping(uint256 => Product) pu...\n      RETURN \t\t\tmapping(uint256 => Product) pu...\n    tag 5\t\t\tuint256 public productCount = ...\n      JUMPDEST \t\t\tuint256 public productCount = ...\n      PUSH [tag] 18\t\t\tuint256 public productCount = ...\n      PUSH [tag] 19\t\t\tuint256 public productCount = ...\n      JUMP \t\t\tuint256 public productCount = ...\n    tag 18\t\t\tuint256 public productCount = ...\n      JUMPDEST \t\t\tuint256 public productCount = ...\n      PUSH 40\t\t\tuint256 public productCount = ...\n      MLOAD \t\t\tuint256 public productCount = ...\n      PUSH [tag] 20\t\t\tuint256 public productCount = ...\n      SWAP2 \t\t\tuint256 public productCount = ...\n      SWAP1 \t\t\tuint256 public productCount = ...\n      PUSH [tag] 21\t\t\tuint256 public productCount = ...\n      JUMP \t\t\tuint256 public productCount = ...\n    tag 20\t\t\tuint256 public productCount = ...\n      JUMPDEST \t\t\tuint256 public productCount = ...\n      PUSH 40\t\t\tuint256 public productCount = ...\n      MLOAD \t\t\tuint256 public productCount = ...\n      DUP1 \t\t\tuint256 public productCount = ...\n      SWAP2 \t\t\tuint256 public productCount = ...\n      SUB \t\t\tuint256 public productCount = ...\n      SWAP1 \t\t\tuint256 public productCount = ...\n      RETURN \t\t\tuint256 public productCount = ...\n    tag 6\t\t\tfunction addProduct(\\r\\n      ...\n      JUMPDEST \t\t\tfunction addProduct(\\r\\n      ...\n      PUSH [tag] 22\t\t\tfunction addProduct(\\r\\n      ...\n      PUSH 4\t\t\tfunction addProduct(\\r\\n      ...\n      DUP1 \t\t\tfunction addProduct(\\r\\n      ...\n      CALLDATASIZE \t\t\tfunction addProduct(\\r\\n      ...\n      SUB \t\t\tfunction addProduct(\\r\\n      ...\n      DUP2 \t\t\tfunction addProduct(\\r\\n      ...\n      ADD \t\t\tfunction addProduct(\\r\\n      ...\n      SWAP1 \t\t\tfunction addProduct(\\r\\n      ...\n      PUSH [tag] 23\t\t\tfunction addProduct(\\r\\n      ...\n      SWAP2 \t\t\tfunction addProduct(\\r\\n      ...\n      SWAP1 \t\t\tfunction addProduct(\\r\\n      ...\n      PUSH [tag] 24\t\t\tfunction addProduct(\\r\\n      ...\n      JUMP \t\t\tfunction addProduct(\\r\\n      ...\n    tag 23\t\t\tfunction addProduct(\\r\\n      ...\n      JUMPDEST \t\t\tfunction addProduct(\\r\\n      ...\n      PUSH [tag] 25\t\t\tfunction addProduct(\\r\\n      ...\n      JUMP \t\t\tfunction addProduct(\\r\\n      ...\n    tag 22\t\t\tfunction addProduct(\\r\\n      ...\n      JUMPDEST \t\t\tfunction addProduct(\\r\\n      ...\n      PUSH 40\t\t\tfunction addProduct(\\r\\n      ...\n      MLOAD \t\t\tfunction addProduct(\\r\\n      ...\n      PUSH [tag] 26\t\t\tfunction addProduct(\\r\\n      ...\n      SWAP2 \t\t\tfunction addProduct(\\r\\n      ...\n      SWAP1 \t\t\tfunction addProduct(\\r\\n      ...\n      PUSH [tag] 21\t\t\tfunction addProduct(\\r\\n      ...\n      JUMP \t\t\tfunction addProduct(\\r\\n      ...\n    tag 26\t\t\tfunction addProduct(\\r\\n      ...\n      JUMPDEST \t\t\tfunction addProduct(\\r\\n      ...\n      PUSH 40\t\t\tfunction addProduct(\\r\\n      ...\n      MLOAD \t\t\tfunction addProduct(\\r\\n      ...\n      DUP1 \t\t\tfunction addProduct(\\r\\n      ...\n      SWAP2 \t\t\tfunction addProduct(\\r\\n      ...\n      SUB \t\t\tfunction addProduct(\\r\\n      ...\n      SWAP1 \t\t\tfunction addProduct(\\r\\n      ...\n      RETURN \t\t\tfunction addProduct(\\r\\n      ...\n    tag 10\t\t\tfunction verifyProduct(uint256...\n      JUMPDEST \t\t\tfunction verifyProduct(uint256...\n      PUSH 0\t\t\tbool\n      DUP1 \t\t\tProduct memory product\n      PUSH 0\t\t\tproducts\n      DUP1 \t\t\tproducts[productId]\n      DUP5 \t\t\tproductId\n      DUP2 \t\t\tproducts[productId]\n      MSTORE \t\t\tproducts[productId]\n      PUSH 20\t\t\tproducts[productId]\n      ADD \t\t\tproducts[productId]\n      SWAP1 \t\t\tproducts[productId]\n      DUP2 \t\t\tproducts[productId]\n      MSTORE \t\t\tproducts[productId]\n      PUSH 20\t\t\tproducts[productId]\n      ADD \t\t\tproducts[productId]\n      PUSH 0\t\t\tproducts[productId]\n      KECCAK256 \t\t\tproducts[productId]\n      PUSH 40\t\t\tProduct memory product = produ...\n      MLOAD \t\t\tProduct memory product = produ...\n      DUP1 \t\t\tProduct memory product = produ...\n      PUSH 60\t\t\tProduct memory product = produ...\n      ADD \t\t\tProduct memory product = produ...\n      PUSH 40\t\t\tProduct memory product = produ...\n      MSTORE \t\t\tProduct memory product = produ...\n      SWAP1 \t\t\tProduct memory product = produ...\n      DUP2 \t\t\tProduct memory product = produ...\n      PUSH 0\t\t\tProduct memory product = produ...\n      DUP3 \t\t\tProduct memory product = produ...\n      ADD \t\t\tProduct memory product = produ...\n      DUP1 \t\t\tProduct memory product = produ...\n      SLOAD \t\t\tProduct memory product = produ...\n      PUSH [tag] 28\t\t\tProduct memory product = produ...\n      SWAP1 \t\t\tProduct memory product = produ...\n      PUSH [tag] 29\t\t\tProduct memory product = produ...\n      JUMP \t\t\tProduct memory product = produ...\n    tag 28\t\t\tProduct memory product = produ...\n      JUMPDEST \t\t\tProduct memory product = produ...\n      DUP1 \t\t\tProduct memory product = produ...\n      PUSH 1F\t\t\tProduct memory product = produ...\n      ADD \t\t\tProduct memory product = produ...\n      PUSH 20\t\t\tProduct memory product = produ...\n      DUP1 \t\t\tProduct memory product = produ...\n      SWAP2 \t\t\tProduct memory product = produ...\n      DIV \t\t\tProduct memory product = produ...\n      MUL \t\t\tProduct memory product = produ...\n      PUSH 20\t\t\tProduct memory product = produ...\n      ADD \t\t\tProduct memory product = produ...\n      PUSH 40\t\t\tProduct memory product = produ...\n      MLOAD \t\t\tProduct memory product = produ...\n      SWAP1 \t\t\tProduct memory product = produ...\n      DUP2 \t\t\tProduct memory product = produ...\n      ADD \t\t\tProduct memory product = produ...\n      PUSH 40\t\t\tProduct memory product = produ...\n      MSTORE \t\t\tProduct memory product = produ...\n      DUP1 \t\t\tProduct memory product = produ...\n      SWAP3 \t\t\tProduct memory product = produ...\n      SWAP2 \t\t\tProduct memory product = produ...\n      SWAP1 \t\t\tProduct memory product = produ...\n      DUP2 \t\t\tProduct memory product = produ...\n      DUP2 \t\t\tProduct memory product = produ...\n      MSTORE \t\t\tProduct memory product = produ...\n      PUSH 20\t\t\tProduct memory product = produ...\n      ADD \t\t\tProduct memory product = produ...\n      DUP3 \t\t\tProduct memory product = produ...\n      DUP1 \t\t\tProduct memory product = produ...\n      SLOAD \t\t\tProduct memory product = produ...\n      PUSH [tag] 30\t\t\tProduct memory product = produ...\n      SWAP1 \t\t\tProduct memory product = produ...\n      PUSH [tag] 29\t\t\tProduct memory product = produ...\n      JUMP \t\t\tProduct memory product = produ...\n    tag 30\t\t\tProduct memory product = produ...\n      JUMPDEST \t\t\tProduct memory product = produ...\n      DUP1 \t\t\tProduct memory product = produ...\n      ISZERO \t\t\tProduct memory product = produ...\n      PUSH [tag] 31\t\t\tProduct memory product = produ...\n      JUMPI \t\t\tProduct memory product = produ...\n      DUP1 \t\t\tProduct memory product = produ...\n      PUSH 1F\t\t\tProduct memory product = produ...\n      LT \t\t\tProduct memory product = produ...\n      PUSH [tag] 32\t\t\tProduct memory product = produ...\n      JUMPI \t\t\tProduct memory product = produ...\n      PUSH 100\t\t\tProduct memory product = produ...\n      DUP1 \t\t\tProduct memory product = produ...\n      DUP4 \t\t\tProduct memory product = produ...\n      SLOAD \t\t\tProduct memory product = produ...\n      DIV \t\t\tProduct memory product = produ...\n      MUL \t\t\tProduct memory product = produ...\n      DUP4 \t\t\tProduct memory product = produ...\n      MSTORE \t\t\tProduct memory product = produ...\n      SWAP2 \t\t\tProduct memory product = produ...\n      PUSH 20\t\t\tProduct memory product = produ...\n      ADD \t\t\tProduct memory product = produ...\n      SWAP2 \t\t\tProduct memory product = produ...\n      PUSH [tag] 31\t\t\tProduct memory product = produ...\n      JUMP \t\t\tProduct memory product = produ...\n    tag 32\t\t\tProduct memory product = produ...\n      JUMPDEST \t\t\tProduct memory product = produ...\n      DUP3 \t\t\tProduct memory product = produ...\n      ADD \t\t\tProduct memory product = produ...\n      SWAP2 \t\t\tProduct memory product = produ...\n      SWAP1 \t\t\tProduct memory product = produ...\n      PUSH 0\t\t\tProduct memory product = produ...\n      MSTORE \t\t\tProduct memory product = produ...\n      PUSH 20\t\t\tProduct memory product = produ...\n      PUSH 0\t\t\tProduct memory product = produ...\n      KECCAK256 \t\t\tProduct memory product = produ...\n      SWAP1 \t\t\tProduct memory product = produ...\n    tag 33\t\t\tProduct memory product = produ...\n      JUMPDEST \t\t\tProduct memory product = produ...\n      DUP2 \t\t\tProduct memory product = produ...\n      SLOAD \t\t\tProduct memory product = produ...\n      DUP2 \t\t\tProduct memory product = produ...\n      MSTORE \t\t\tProduct memory product = produ...\n      SWAP1 \t\t\tProduct memory product = produ...\n      PUSH 1\t\t\tProduct memory product = produ...\n      ADD \t\t\tProduct memory product = produ...\n      SWAP1 \t\t\tProduct memory product = produ...\n      PUSH 20\t\t\tProduct memory product = produ...\n      ADD \t\t\tProduct memory product = produ...\n      DUP1 \t\t\tProduct memory product = produ...\n      DUP4 \t\t\tProduct memory product = produ...\n      GT \t\t\tProduct memory product = produ...\n      PUSH [tag] 33\t\t\tProduct memory product = produ...\n      JUMPI \t\t\tProduct memory product = produ...\n      DUP3 \t\t\tProduct memory product = produ...\n      SWAP1 \t\t\tProduct memory product = produ...\n      SUB \t\t\tProduct memory product = produ...\n      PUSH 1F\t\t\tProduct memory product = produ...\n      AND \t\t\tProduct memory product = produ...\n      DUP3 \t\t\tProduct memory product = produ...\n      ADD \t\t\tProduct memory product = produ...\n      SWAP2 \t\t\tProduct memory product = produ...\n    tag 31\t\t\tProduct memory product = produ...\n      JUMPDEST \t\t\tProduct memory product = produ...\n      POP \t\t\tProduct memory product = produ...\n      POP \t\t\tProduct memory product = produ...\n      POP \t\t\tProduct memory product = produ...\n      POP \t\t\tProduct memory product = produ...\n      POP \t\t\tProduct memory product = produ...\n      DUP2 \t\t\tProduct memory product = produ...\n      MSTORE \t\t\tProduct memory product = produ...\n      PUSH 20\t\t\tProduct memory product = produ...\n      ADD \t\t\tProduct memory product = produ...\n      PUSH 1\t\t\tProduct memory product = produ...\n      DUP3 \t\t\tProduct memory product = produ...\n      ADD \t\t\tProduct memory product = produ...\n      SLOAD \t\t\tProduct memory product = produ...\n      DUP2 \t\t\tProduct memory product = produ...\n      MSTORE \t\t\tProduct memory product = produ...\n      PUSH 20\t\t\tProduct memory product = produ...\n      ADD \t\t\tProduct memory product = produ...\n      PUSH 2\t\t\tProduct memory product = produ...\n      DUP3 \t\t\tProduct memory product = produ...\n      ADD \t\t\tProduct memory product = produ...\n      PUSH 0\t\t\tProduct memory product = produ...\n      SWAP1 \t\t\tProduct memory product = produ...\n      SLOAD \t\t\tProduct memory product = produ...\n      SWAP1 \t\t\tProduct memory product = produ...\n      PUSH 100\t\t\tProduct memory product = produ...\n      EXP \t\t\tProduct memory product = produ...\n      SWAP1 \t\t\tProduct memory product = produ...\n      DIV \t\t\tProduct memory product = produ...\n      PUSH FF\t\t\tProduct memory product = produ...\n      AND \t\t\tProduct memory product = produ...\n      ISZERO \t\t\tProduct memory product = produ...\n      ISZERO \t\t\tProduct memory product = produ...\n      ISZERO \t\t\tProduct memory product = produ...\n      ISZERO \t\t\tProduct memory product = produ...\n      DUP2 \t\t\tProduct memory product = produ...\n      MSTORE \t\t\tProduct memory product = produ...\n      POP \t\t\tProduct memory product = produ...\n      POP \t\t\tProduct memory product = produ...\n      SWAP1 \t\t\tProduct memory product = produ...\n      POP \t\t\tProduct memory product = produ...\n      PUSH 50\t\t\t80\n      DUP2 \t\t\tproduct\n      PUSH 20\t\t\tproduct.sustainabilityScore\n      ADD \t\t\tproduct.sustainabilityScore\n      MLOAD \t\t\tproduct.sustainabilityScore\n      LT \t\t\tproduct.sustainabilityScore >=...\n      ISZERO \t\t\tproduct.sustainabilityScore >=...\n      DUP1 \t\t\tproduct.sustainabilityScore >=...\n      ISZERO \t\t\tproduct.sustainabilityScore >=...\n      PUSH [tag] 34\t\t\tproduct.sustainabilityScore >=...\n      JUMPI \t\t\tproduct.sustainabilityScore >=...\n      POP \t\t\tproduct.sustainabilityScore >=...\n      DUP1 \t\t\tproduct\n      PUSH 40\t\t\tproduct.fairTradeCertified\n      ADD \t\t\tproduct.fairTradeCertified\n      MLOAD \t\t\tproduct.fairTradeCertified\n    tag 34\t\t\tproduct.sustainabilityScore >=...\n      JUMPDEST \t\t\tproduct.sustainabilityScore >=...\n      ISZERO \t\t\tif (\\r\\n            product.su...\n      PUSH [tag] 35\t\t\tif (\\r\\n            product.su...\n      JUMPI \t\t\tif (\\r\\n            product.su...\n      PUSH 1\t\t\ttrue\n      SWAP2 \t\t\treturn true\n      POP \t\t\treturn true\n      POP \t\t\treturn true\n      PUSH [tag] 27\t\t\treturn true\n      JUMP \t\t\treturn true\n    tag 35\t\t\tif (\\r\\n            product.su...\n      JUMPDEST \t\t\tif (\\r\\n            product.su...\n      PUSH 0\t\t\tfalse\n      SWAP2 \t\t\treturn false\n      POP \t\t\treturn false\n      POP \t\t\treturn false\n    tag 27\t\t\tfunction verifyProduct(uint256...\n      JUMPDEST \t\t\tfunction verifyProduct(uint256...\n      SWAP2 \t\t\tfunction verifyProduct(uint256...\n      SWAP1 \t\t\tfunction verifyProduct(uint256...\n      POP \t\t\tfunction verifyProduct(uint256...\n      JUMP \t\t\tfunction verifyProduct(uint256...\n    tag 15\t\t\tmapping(uint256 => Product) pu...\n      JUMPDEST \t\t\tmapping(uint256 => Product) pu...\n      PUSH 0\t\t\tmapping(uint256 => Product) pu...\n      PUSH 20\t\t\tmapping(uint256 => Product) pu...\n      MSTORE \t\t\tmapping(uint256 => Product) pu...\n      DUP1 \t\t\tmapping(uint256 => Product) pu...\n      PUSH 0\t\t\tmapping(uint256 => Product) pu...\n      MSTORE \t\t\tmapping(uint256 => Product) pu...\n      PUSH 40\t\t\tmapping(uint256 => Product) pu...\n      PUSH 0\t\t\tmapping(uint256 => Product) pu...\n      KECCAK256 \t\t\tmapping(uint256 => Product) pu...\n      PUSH 0\t\t\tmapping(uint256 => Product) pu...\n      SWAP2 \t\t\tmapping(uint256 => Product) pu...\n      POP \t\t\tmapping(uint256 => Product) pu...\n      SWAP1 \t\t\tmapping(uint256 => Product) pu...\n      POP \t\t\tmapping(uint256 => Product) pu...\n      DUP1 \t\t\tmapping(uint256 => Product) pu...\n      PUSH 0\t\t\tmapping(uint256 => Product) pu...\n      ADD \t\t\tmapping(uint256 => Product) pu...\n      DUP1 \t\t\tmapping(uint256 => Product) pu...\n      SLOAD \t\t\tmapping(uint256 => Product) pu...\n      PUSH [tag] 36\t\t\tmapping(uint256 => Product) pu...\n      SWAP1 \t\t\tmapping(uint256 => Product) pu...\n      PUSH [tag] 29\t\t\tmapping(uint256 => Product) pu...\n      JUMP \t\t\tmapping(uint256 => Product) pu...\n    tag 36\t\t\tmapping(uint256 => Product) pu...\n      JUMPDEST \t\t\tmapping(uint256 => Product) pu...\n      DUP1 \t\t\tmapping(uint256 => Product) pu...\n      PUSH 1F\t\t\tmapping(uint256 => Product) pu...\n      ADD \t\t\tmapping(uint256 => Product) pu...\n      PUSH 20\t\t\tmapping(uint256 => Product) pu...\n      DUP1 \t\t\tmapping(uint256 => Product) pu...\n      SWAP2 \t\t\tmapping(uint256 => Product) pu...\n      DIV \t\t\tmapping(uint256 => Product) pu...\n      MUL \t\t\tmapping(uint256 => Product) pu...\n      PUSH 20\t\t\tmapping(uint256 => Product) pu...\n      ADD \t\t\tmapping(uint256 => Product) pu...\n      PUSH 40\t\t\tmapping(uint256 => Product) pu...\n      MLOAD \t\t\tmapping(uint256 => Product) pu...\n      SWAP1 \t\t\tmapping(uint256 => Product) pu...\n      DUP2 \t\t\tmapping(uint256 => Product) pu...\n      ADD \t\t\tmapping(uint256 => Product) pu...\n      PUSH 40\t\t\tmapping(uint256 => Product) pu...\n      MSTORE \t\t\tmapping(uint256 => Product) pu...\n      DUP1 \t\t\tmapping(uint256 => Product) pu...\n      SWAP3 \t\t\tmapping(uint256 => Product) pu...\n      SWAP2 \t\t\tmapping(uint256 => Product) pu...\n      SWAP1 \t\t\tmapping(uint256 => Product) pu...\n      DUP2 \t\t\tmapping(uint256 => Product) pu...\n      DUP2 \t\t\tmapping(uint256 => Product) pu...\n      MSTORE \t\t\tmapping(uint256 => Product) pu...\n      PUSH 20\t\t\tmapping(uint256 => Product) pu...\n      ADD \t\t\tmapping(uint256 => Product) pu...\n      DUP3 \t\t\tmapping(uint256 => Product) pu...\n      DUP1 \t\t\tmapping(uint256 => Product) pu...\n      SLOAD \t\t\tmapping(uint256 => Product) pu...\n      PUSH [tag] 37\t\t\tmapping(uint256 => Product) pu...\n      SWAP1 \t\t\tmapping(uint256 => Product) pu...\n      PUSH [tag] 29\t\t\tmapping(uint256 => Product) pu...\n      JUMP \t\t\tmapping(uint256 => Product) pu...\n    tag 37\t\t\tmapping(uint256 => Product) pu...\n      JUMPDEST \t\t\tmapping(uint256 => Product) pu...\n      DUP1 \t\t\tmapping(uint256 => Product) pu...\n      ISZERO \t\t\tmapping(uint256 => Product) pu...\n      PUSH [tag] 38\t\t\tmapping(uint256 => Product) pu...\n      JUMPI \t\t\tmapping(uint256 => Product) pu...\n      DUP1 \t\t\tmapping(uint256 => Product) pu...\n      PUSH 1F\t\t\tmapping(uint256 => Product) pu...\n      LT \t\t\tmapping(uint256 => Product) pu...\n      PUSH [tag] 39\t\t\tmapping(uint256 => Product) pu...\n      JUMPI \t\t\tmapping(uint256 => Product) pu...\n      PUSH 100\t\t\tmapping(uint256 => Product) pu...\n      DUP1 \t\t\tmapping(uint256 => Product) pu...\n      DUP4 \t\t\tmapping(uint256 => Product) pu...\n      SLOAD \t\t\tmapping(uint256 => Product) pu...\n      DIV \t\t\tmapping(uint256 => Product) pu...\n      MUL \t\t\tmapping(uint256 => Product) pu...\n      DUP4 \t\t\tmapping(uint256 => Product) pu...\n      MSTORE \t\t\tmapping(uint256 => Product) pu...\n      SWAP2 \t\t\tmapping(uint256 => Product) pu...\n      PUSH 20\t\t\tmapping(uint256 => Product) pu...\n      ADD \t\t\tmapping(uint256 => Product) pu...\n      SWAP2 \t\t\tmapping(uint256 => Product) pu...\n      PUSH [tag] 38\t\t\tmapping(uint256 => Product) pu...\n      JUMP \t\t\tmapping(uint256 => Product) pu...\n    tag 39\t\t\tmapping(uint256 => Product) pu...\n      JUMPDEST \t\t\tmapping(uint256 => Product) pu...\n      DUP3 \t\t\tmapping(uint256 => Product) pu...\n      ADD \t\t\tmapping(uint256 => Product) pu...\n      SWAP2 \t\t\tmapping(uint256 => Product) pu...\n      SWAP1 \t\t\tmapping(uint256 => Product) pu...\n      PUSH 0\t\t\tmapping(uint256 => Product) pu...\n      MSTORE \t\t\tmapping(uint256 => Product) pu...\n      PUSH 20\t\t\tmapping(uint256 => Product) pu...\n      PUSH 0\t\t\tmapping(uint256 => Product) pu...\n      KECCAK256 \t\t\tmapping(uint256 => Product) pu...\n      SWAP1 \t\t\tmapping(uint256 => Product) pu...\n    tag 40\t\t\tmapping(uint256 => Product) pu...\n      JUMPDEST \t\t\tmapping(uint256 => Product) pu...\n      DUP2 \t\t\tmapping(uint256 => Product) pu...\n      SLOAD \t\t\tmapping(uint256 => Product) pu...\n      DUP2 \t\t\tmapping(uint256 => Product) pu...\n      MSTORE \t\t\tmapping(uint256 => Product) pu...\n      SWAP1 \t\t\tmapping(uint256 => Product) pu...\n      PUSH 1\t\t\tmapping(uint256 => Product) pu...\n      ADD \t\t\tmapping(uint256 => Product) pu...\n      SWAP1 \t\t\tmapping(uint256 => Product) pu...\n      PUSH 20\t\t\tmapping(uint256 => Product) pu...\n      ADD \t\t\tmapping(uint256 => Product) pu...\n      DUP1 \t\t\tmapping(uint256 => Product) pu...\n      DUP4 \t\t\tmapping(uint256 => Product) pu...\n      GT \t\t\tmapping(uint256 => Product) pu...\n      PUSH [tag] 40\t\t\tmapping(uint256 => Product) pu...\n      JUMPI \t\t\tmapping(uint256 => Product) pu...\n      DUP3 \t\t\tmapping(uint256 => Product) pu...\n      SWAP1 \t\t\tmapping(uint256 => Product) pu...\n      SUB \t\t\tmapping(uint256 => Product) pu...\n      PUSH 1F\t\t\tmapping(uint256 => Product) pu...\n      AND \t\t\tmapping(uint256 => Product) pu...\n      DUP3 \t\t\tmapping(uint256 => Product) pu...\n      ADD \t\t\tmapping(uint256 => Product) pu...\n      SWAP2 \t\t\tmapping(uint256 => Product) pu...\n    tag 38\t\t\tmapping(uint256 => Product) pu...\n      JUMPDEST \t\t\tmapping(uint256 => Product) pu...\n      POP \t\t\tmapping(uint256 => Product) pu...\n      POP \t\t\tmapping(uint256 => Product) pu...\n      POP \t\t\tmapping(uint256 => Product) pu...\n      POP \t\t\tmapping(uint256 => Product) pu...\n      POP \t\t\tmapping(uint256 => Product) pu...\n      SWAP1 \t\t\tmapping(uint256 => Product) pu...\n      DUP1 \t\t\tmapping(uint256 => Product) pu...\n      PUSH 1\t\t\tmapping(uint256 => Product) pu...\n      ADD \t\t\tmapping(uint256 => Product) pu...\n      SLOAD \t\t\tmapping(uint256 => Product) pu...\n      SWAP1 \t\t\tmapping(uint256 => Product) pu...\n      DUP1 \t\t\tmapping(uint256 => Product) pu...\n      PUSH 2\t\t\tmapping(uint256 => Product) pu...\n      ADD \t\t\tmapping(uint256 => Product) pu...\n      PUSH 0\t\t\tmapping(uint256 => Product) pu...\n      SWAP1 \t\t\tmapping(uint256 => Product) pu...\n      SLOAD \t\t\tmapping(uint256 => Product) pu...\n      SWAP1 \t\t\tmapping(uint256 => Product) pu...\n      PUSH 100\t\t\tmapping(uint256 => Product) pu...\n      EXP \t\t\tmapping(uint256 => Product) pu...\n      SWAP1 \t\t\tmapping(uint256 => Product) pu...\n      DIV \t\t\tmapping(uint256 => Product) pu...\n      PUSH FF\t\t\tmapping(uint256 => Product) pu...\n      AND \t\t\tmapping(uint256 => Product) pu...\n      SWAP1 \t\t\tmapping(uint256 => Product) pu...\n      POP \t\t\tmapping(uint256 => Product) pu...\n      DUP4 \t\t\tmapping(uint256 => Product) pu...\n      JUMP \t\t\tmapping(uint256 => Product) pu...\n    tag 19\t\t\tuint256 public productCount = ...\n      JUMPDEST \t\t\tuint256 public productCount = ...\n      PUSH 1\t\t\tuint256 public productCount = ...\n      SLOAD \t\t\tuint256 public productCount = ...\n      DUP2 \t\t\tuint256 public productCount = ...\n      JUMP \t\t\tuint256 public productCount = ...\n    tag 25\t\t\tfunction addProduct(\\r\\n      ...\n      JUMPDEST \t\t\tfunction addProduct(\\r\\n      ...\n      PUSH 0\t\t\tuint256\n      PUSH 1\t\t\tproductCount\n      PUSH 0\t\t\tproductCount\n      DUP2 \t\t\tproductCount++\n      SLOAD \t\t\tproductCount++\n      DUP1 \t\t\tproductCount++\n      SWAP3 \t\t\tproductCount++\n      SWAP2 \t\t\tproductCount++\n      SWAP1 \t\t\tproductCount++\n      PUSH [tag] 42\t\t\tproductCount++\n      SWAP1 \t\t\tproductCount++\n      PUSH [tag] 43\t\t\tproductCount++\n      JUMP \t\t\tproductCount++\n    tag 42\t\t\tproductCount++\n      JUMPDEST \t\t\tproductCount++\n      SWAP2 \t\t\tproductCount++\n      SWAP1 \t\t\tproductCount++\n      POP \t\t\tproductCount++\n      SSTORE \t\t\tproductCount++\n      POP \t\t\tproductCount++\n      PUSH 40\t\t\tProduct(\\r\\n            name,\\...\n      MLOAD \t\t\tProduct(\\r\\n            name,\\...\n      DUP1 \t\t\tProduct(\\r\\n            name,\\...\n      PUSH 60\t\t\tProduct(\\r\\n            name,\\...\n      ADD \t\t\tProduct(\\r\\n            name,\\...\n      PUSH 40\t\t\tProduct(\\r\\n            name,\\...\n      MSTORE \t\t\tProduct(\\r\\n            name,\\...\n      DUP1 \t\t\tProduct(\\r\\n            name,\\...\n      DUP6 \t\t\tname\n      DUP2 \t\t\tProduct(\\r\\n            name,\\...\n      MSTORE \t\t\tProduct(\\r\\n            name,\\...\n      PUSH 20\t\t\tProduct(\\r\\n            name,\\...\n      ADD \t\t\tProduct(\\r\\n            name,\\...\n      DUP5 \t\t\tsustainabilityScore\n      DUP2 \t\t\tProduct(\\r\\n            name,\\...\n      MSTORE \t\t\tProduct(\\r\\n            name,\\...\n      PUSH 20\t\t\tProduct(\\r\\n            name,\\...\n      ADD \t\t\tProduct(\\r\\n            name,\\...\n      DUP4 \t\t\tfairTradeCertified\n      ISZERO \t\t\tProduct(\\r\\n            name,\\...\n      ISZERO \t\t\tProduct(\\r\\n            name,\\...\n      DUP2 \t\t\tProduct(\\r\\n            name,\\...\n      MSTORE \t\t\tProduct(\\r\\n            name,\\...\n      POP \t\t\tProduct(\\r\\n            name,\\...\n      PUSH 0\t\t\tproducts\n      DUP1 \t\t\tproducts[productCount]\n      PUSH 1\t\t\tproductCount\n      SLOAD \t\t\tproductCount\n      DUP2 \t\t\tproducts[productCount]\n      MSTORE \t\t\tproducts[productCount]\n      PUSH 20\t\t\tproducts[productCount]\n      ADD \t\t\tproducts[productCount]\n      SWAP1 \t\t\tproducts[productCount]\n      DUP2 \t\t\tproducts[productCount]\n      MSTORE \t\t\tproducts[productCount]\n      PUSH 20\t\t\tproducts[productCount]\n      ADD \t\t\tproducts[productCount]\n      PUSH 0\t\t\tproducts[productCount]\n      KECCAK256 \t\t\tproducts[productCount]\n      PUSH 0\t\t\tproducts[productCount] = Produ...\n      DUP3 \t\t\tproducts[productCount] = Produ...\n      ADD \t\t\tproducts[productCount] = Produ...\n      MLOAD \t\t\tproducts[productCount] = Produ...\n      DUP2 \t\t\tproducts[productCount] = Produ...\n      PUSH 0\t\t\tproducts[productCount] = Produ...\n      ADD \t\t\tproducts[productCount] = Produ...\n      SWAP1 \t\t\tproducts[productCount] = Produ...\n      DUP2 \t\t\tproducts[productCount] = Produ...\n      PUSH [tag] 44\t\t\tproducts[productCount] = Produ...\n      SWAP2 \t\t\tproducts[productCount] = Produ...\n      SWAP1 \t\t\tproducts[productCount] = Produ...\n      PUSH [tag] 45\t\t\tproducts[productCount] = Produ...\n      JUMP \t\t\tproducts[productCount] = Produ...\n    tag 44\t\t\tproducts[productCount] = Produ...\n      JUMPDEST \t\t\tproducts[productCount] = Produ...\n      POP \t\t\tproducts[productCount] = Produ...\n      PUSH 20\t\t\tproducts[productCount] = Produ...\n      DUP3 \t\t\tproducts[productCount] = Produ...\n      ADD \t\t\tproducts[productCount] = Produ...\n      MLOAD \t\t\tproducts[productCount] = Produ...\n      DUP2 \t\t\tproducts[productCount] = Produ...\n      PUSH 1\t\t\tproducts[productCount] = Produ...\n      ADD \t\t\tproducts[productCount] = Produ...\n      SSTORE \t\t\tproducts[productCount] = Produ...\n      PUSH 40\t\t\tproducts[productCount] = Produ...\n      DUP3 \t\t\tproducts[productCount] = Produ...\n      ADD \t\t\tproducts[productCount] = Produ...\n      MLOAD \t\t\tproducts[productCount] = Produ...\n      DUP2 \t\t\tproducts[productCount] = Produ...\n      PUSH 2\t\t\tproducts[productCount] = Produ...\n      ADD \t\t\tproducts[productCount] = Produ...\n      PUSH 0\t\t\tproducts[productCount] = Produ...\n      PUSH 100\t\t\tproducts[productCount] = Produ...\n      EXP \t\t\tproducts[productCount] = Produ...\n      DUP2 \t\t\tproducts[productCount] = Produ...\n      SLOAD \t\t\tproducts[productCount] = Produ...\n      DUP2 \t\t\tproducts[productCount] = Produ...\n      PUSH FF\t\t\tproducts[productCount] = Produ...\n      MUL \t\t\tproducts[productCount] = Produ...\n      NOT \t\t\tproducts[productCount] = Produ...\n      AND \t\t\tproducts[productCount] = Produ...\n      SWAP1 \t\t\tproducts[productCount] = Produ...\n      DUP4 \t\t\tproducts[productCount] = Produ...\n      ISZERO \t\t\tproducts[productCount] = Produ...\n      ISZERO \t\t\tproducts[productCount] = Produ...\n      MUL \t\t\tproducts[productCount] = Produ...\n      OR \t\t\tproducts[productCount] = Produ...\n      SWAP1 \t\t\tproducts[productCount] = Produ...\n      SSTORE \t\t\tproducts[productCount] = Produ...\n      POP \t\t\tproducts[productCount] = Produ...\n      SWAP1 \t\t\tproducts[productCount] = Produ...\n      POP \t\t\tproducts[productCount] = Produ...\n      POP \t\t\tproducts[productCount] = Produ...\n      PUSH 1\t\t\tproductCount\n      SLOAD \t\t\tproductCount\n      SWAP1 \t\t\treturn productCount\n      POP \t\t\treturn productCount\n      SWAP4 \t\t\tfunction addProduct(\\r\\n      ...\n      SWAP3 \t\t\tfunction addProduct(\\r\\n      ...\n      POP \t\t\tfunction addProduct(\\r\\n      ...\n      POP \t\t\tfunction addProduct(\\r\\n      ...\n      POP \t\t\tfunction addProduct(\\r\\n      ...\n      JUMP \t\t\tfunction addProduct(\\r\\n      ...\n    tag 46\t\t\t-License-Identifier: MIT\\r\\npr...\n      JUMPDEST \t\t\t-License-Identifier: MIT\\r\\npr...\n      PUSH 0\t\t\tsolidi\n      PUSH 40\t\t\tuc\n      MLOAD \t\t\tt Product\n      SWAP1 \t\t\t\\n\\r\\ncontract Product\n      POP \t\t\t\\n\\r\\ncontract Product\n      SWAP1 \t\t\t-License-Identifier: MIT\\r\\npr...\n      JUMP \t\t\t-License-Identifier: MIT\\r\\npr...\n    tag 47\t\t\tn {\\r\\n    struct Product {\\r\\...\n      JUMPDEST \t\t\tn {\\r\\n    struct Product {\\r\\...\n      PUSH 0\t\t\tC\n      DUP1 \t\t\ta\n      REVERT \t\t\t fairTradeCe\n    tag 48\t\t\t  }\\r\\n\\r\\n    mapping(uint256...\n      JUMPDEST \t\t\t  }\\r\\n\\r\\n    mapping(uint256...\n      PUSH 0\t\t\t \n      DUP1 \t\t\ti\n      REVERT \t\t\t  function a\n    tag 49\t\t\t        string memory name,\\r\\...\n      JUMPDEST \t\t\t        string memory name,\\r\\...\n      PUSH 0\t\t\tuint256\n      DUP2 \t\t\t\\n    \n      SWAP1 \t\t\tlityScore,\\r\\n    \n      POP \t\t\tlityScore,\\r\\n    \n      SWAP2 \t\t\t        string memory name,\\r\\...\n      SWAP1 \t\t\t        string memory name,\\r\\...\n      POP \t\t\t        string memory name,\\r\\...\n      JUMP \t\t\t        string memory name,\\r\\...\n    tag 50\t\t\trTradeCertified\\r\\n    ) publi...\n      JUMPDEST \t\t\trTradeCertified\\r\\n    ) publi...\n      PUSH [tag] 94\t\t\t;\\r\\n        products[prod\n      DUP2 \t\t\ts[pro\n      PUSH [tag] 49\t\t\t;\\r\\n        products[prod\n      JUMP \t\t\t;\\r\\n        products[prod\n    tag 94\t\t\t;\\r\\n        products[prod\n      JUMPDEST \t\t\t;\\r\\n        products[prod\n      DUP2 \t\t\tCount\n      EQ \t\t\tuctCount++;\\r\\n        product...\n      PUSH [tag] 95\t\t\t      productCount++;\\r\\n     ...\n      JUMPI \t\t\t      productCount++;\\r\\n     ...\n      PUSH 0\t\t\td\n      DUP1 \t\t\tP\n      REVERT \t\t\tunt] = Produ\n    tag 95\t\t\t      productCount++;\\r\\n     ...\n      JUMPDEST \t\t\t      productCount++;\\r\\n     ...\n      POP \t\t\trTradeCertified\\r\\n    ) publi...\n      JUMP \t\t\trTradeCertified\\r\\n    ) publi...\n    tag 51\t\t\t   name,\\r\\n            sustai...\n      JUMPDEST \t\t\t   name,\\r\\n            sustai...\n      PUSH 0\t\t\t     \n      DUP2 \t\t\t);\\r\\n  \n      CALLDATALOAD \t\t\tied\\r\\n        );\\r\\n   \n      SWAP1 \t\t\tadeCertified\\r\\n        );\\r\\n...\n      POP \t\t\tadeCertified\\r\\n        );\\r\\n...\n      PUSH [tag] 97\t\t\trn productCount;\\r\\n    }\\r\\n\\...\n      DUP2 \t\t\t    f\n      PUSH [tag] 50\t\t\trn productCount;\\r\\n    }\\r\\n\\...\n      JUMP \t\t\trn productCount;\\r\\n    }\\r\\n\\...\n    tag 97\t\t\trn productCount;\\r\\n    }\\r\\n\\...\n      JUMPDEST \t\t\trn productCount;\\r\\n    }\\r\\n\\...\n      SWAP3 \t\t\t   name,\\r\\n            sustai...\n      SWAP2 \t\t\t   name,\\r\\n            sustai...\n      POP \t\t\t   name,\\r\\n            sustai...\n      POP \t\t\t   name,\\r\\n            sustai...\n      JUMP \t\t\t   name,\\r\\n            sustai...\n    tag 9\t\t\tyProduct(uint256 productId)\\r\\...\n      JUMPDEST \t\t\tyProduct(uint256 productId)\\r\\...\n      PUSH 0\t\t\t      \n      PUSH 20\t\t\tmo\n      DUP3 \t\t\t  Product\n      DUP5 \t\t\t{\\r\\n    \n      SUB \t\t\t    {\\r\\n        Product \n      SLT \t\t\tl)\\r\\n    {\\r\\n        Product...\n      ISZERO \t\t\tbool)\\r\\n    {\\r\\n        Prod...\n      PUSH [tag] 99\t\t\tbool)\\r\\n    {\\r\\n        Prod...\n      JUMPI \t\t\tbool)\\r\\n    {\\r\\n        Prod...\n      PUSH [tag] 100\t\t\troduct = products[productId];\\...\n      PUSH [tag] 47\t\t\troduct = products[productId];\\...\n      JUMP \t\t\troduct = products[productId];\\...\n    tag 100\t\t\troduct = products[productId];\\...\n      JUMPDEST \t\t\troduct = products[productId];\\...\n    tag 99\t\t\tbool)\\r\\n    {\\r\\n        Prod...\n      JUMPDEST \t\t\tbool)\\r\\n    {\\r\\n        Prod...\n      PUSH 0\t\t\tr\n      PUSH [tag] 101\t\t\t{\\r\\n            return true;\\...\n      DUP5 \t\t\t   retu\n      DUP3 \t\t\t }\\r\\n  \n      DUP6 \t\t\te;\\r\\n     \n      ADD \t\t\t true;\\r\\n        }\\r\\n   \n      PUSH [tag] 51\t\t\t{\\r\\n            return true;\\...\n      JUMP \t\t\t{\\r\\n            return true;\\...\n    tag 101\t\t\t{\\r\\n            return true;\\...\n      JUMPDEST \t\t\t{\\r\\n            return true;\\...\n      SWAP2 \t\t\t        ) {\\r\\n            ret...\n      POP \t\t\t        ) {\\r\\n            ret...\n      POP \t\t\t&&\\r\\n            product.fair...\n      SWAP3 \t\t\tyProduct(uint256 productId)\\r\\...\n      SWAP2 \t\t\tyProduct(uint256 productId)\\r\\...\n      POP \t\t\tyProduct(uint256 productId)\\r\\...\n      POP \t\t\tyProduct(uint256 productId)\\r\\...\n      JUMP \t\t\tyProduct(uint256 productId)\\r\\...\n    tag 52\t\t\t\n      JUMPDEST \t\t\t\n      PUSH 0\t\t\t\n      DUP2 \t\t\t\n      ISZERO \t\t\t\n      ISZERO \t\t\t\n      SWAP1 \t\t\t\n      POP \t\t\t\n      SWAP2 \t\t\t\n      SWAP1 \t\t\t\n      POP \t\t\t\n      JUMP \t\t\t\n    tag 53\t\t\t\n      JUMPDEST \t\t\t\n      PUSH [tag] 104\t\t\t\n      DUP2 \t\t\t\n      PUSH [tag] 52\t\t\t\n      JUMP \t\t\t\n    tag 104\t\t\t\n      JUMPDEST \t\t\t\n      DUP3 \t\t\t\n      MSTORE \t\t\t\n      POP \t\t\t\n      POP \t\t\t\n      JUMP \t\t\t\n    tag 12\t\t\t\n      JUMPDEST \t\t\t\n      PUSH 0\t\t\t\n      PUSH 20\t\t\t\n      DUP3 \t\t\t\n      ADD \t\t\t\n      SWAP1 \t\t\t\n      POP \t\t\t\n      PUSH [tag] 106\t\t\t\n      PUSH 0\t\t\t\n      DUP4 \t\t\t\n      ADD \t\t\t\n      DUP5 \t\t\t\n      PUSH [tag] 53\t\t\t\n      JUMP \t\t\t\n    tag 106\t\t\t\n      JUMPDEST \t\t\t\n      SWAP3 \t\t\t\n      SWAP2 \t\t\t\n      POP \t\t\t\n      POP \t\t\t\n      JUMP \t\t\t\n    tag 54\t\t\t\n      JUMPDEST \t\t\t\n      PUSH 0\t\t\t\n      DUP2 \t\t\t\n      MLOAD \t\t\t\n      SWAP1 \t\t\t\n      POP \t\t\t\n      SWAP2 \t\t\t\n      SWAP1 \t\t\t\n      POP \t\t\t\n      JUMP \t\t\t\n    tag 55\t\t\t\n      JUMPDEST \t\t\t\n      PUSH 0\t\t\t\n      DUP3 \t\t\t\n      DUP3 \t\t\t\n      MSTORE \t\t\t\n      PUSH 20\t\t\t\n      DUP3 \t\t\t\n      ADD \t\t\t\n      SWAP1 \t\t\t\n      POP \t\t\t\n      SWAP3 \t\t\t\n      SWAP2 \t\t\t\n      POP \t\t\t\n      POP \t\t\t\n      JUMP \t\t\t\n    tag 56\t\t\t\n      JUMPDEST \t\t\t\n      DUP3 \t\t\t\n      DUP2 \t\t\t\n      DUP4 \t\t\t\n      MCOPY \t\t\t\n      PUSH 0\t\t\t\n      DUP4 \t\t\t\n      DUP4 \t\t\t\n      ADD \t\t\t\n      MSTORE \t\t\t\n      POP \t\t\t\n      POP \t\t\t\n      POP \t\t\t\n      JUMP \t\t\t\n    tag 57\t\t\t\n      JUMPDEST \t\t\t\n      PUSH 0\t\t\t\n      PUSH 1F\t\t\t\n      NOT \t\t\t\n      PUSH 1F\t\t\t\n      DUP4 \t\t\t\n      ADD \t\t\t\n      AND \t\t\t\n      SWAP1 \t\t\t\n      POP \t\t\t\n      SWAP2 \t\t\t\n      SWAP1 \t\t\t\n      POP \t\t\t\n      JUMP \t\t\t\n    tag 58\t\t\t\n      JUMPDEST \t\t\t\n      PUSH 0\t\t\t\n      PUSH [tag] 112\t\t\t\n      DUP3 \t\t\t\n      PUSH [tag] 54\t\t\t\n      JUMP \t\t\t\n    tag 112\t\t\t\n      JUMPDEST \t\t\t\n      PUSH [tag] 113\t\t\t\n      DUP2 \t\t\t\n      DUP6 \t\t\t\n      PUSH [tag] 55\t\t\t\n      JUMP \t\t\t\n    tag 113\t\t\t\n      JUMPDEST \t\t\t\n      SWAP4 \t\t\t\n      POP \t\t\t\n      PUSH [tag] 114\t\t\t\n      DUP2 \t\t\t\n      DUP6 \t\t\t\n      PUSH 20\t\t\t\n      DUP7 \t\t\t\n      ADD \t\t\t\n      PUSH [tag] 56\t\t\t\n      JUMP \t\t\t\n    tag 114\t\t\t\n      JUMPDEST \t\t\t\n      PUSH [tag] 115\t\t\t\n      DUP2 \t\t\t\n      PUSH [tag] 57\t\t\t\n      JUMP \t\t\t\n    tag 115\t\t\t\n      JUMPDEST \t\t\t\n      DUP5 \t\t\t\n      ADD \t\t\t\n      SWAP2 \t\t\t\n      POP \t\t\t\n      POP \t\t\t\n      SWAP3 \t\t\t\n      SWAP2 \t\t\t\n      POP \t\t\t\n      POP \t\t\t\n      JUMP \t\t\t\n    tag 59\t\t\t\n      JUMPDEST \t\t\t\n      PUSH [tag] 117\t\t\t\n      DUP2 \t\t\t\n      PUSH [tag] 49\t\t\t\n      JUMP \t\t\t\n    tag 117\t\t\t\n      JUMPDEST \t\t\t\n      DUP3 \t\t\t\n      MSTORE \t\t\t\n      POP \t\t\t\n      POP \t\t\t\n      JUMP \t\t\t\n    tag 17\t\t\t\n      JUMPDEST \t\t\t\n      PUSH 0\t\t\t\n      PUSH 60\t\t\t\n      DUP3 \t\t\t\n      ADD \t\t\t\n      SWAP1 \t\t\t\n      POP \t\t\t\n      DUP2 \t\t\t\n      DUP2 \t\t\t\n      SUB \t\t\t\n      PUSH 0\t\t\t\n      DUP4 \t\t\t\n      ADD \t\t\t\n      MSTORE \t\t\t\n      PUSH [tag] 119\t\t\t\n      DUP2 \t\t\t\n      DUP7 \t\t\t\n      PUSH [tag] 58\t\t\t\n      JUMP \t\t\t\n    tag 119\t\t\t\n      JUMPDEST \t\t\t\n      SWAP1 \t\t\t\n      POP \t\t\t\n      PUSH [tag] 120\t\t\t\n      PUSH 20\t\t\t\n      DUP4 \t\t\t\n      ADD \t\t\t\n      DUP6 \t\t\t\n      PUSH [tag] 59\t\t\t\n      JUMP \t\t\t\n    tag 120\t\t\t\n      JUMPDEST \t\t\t\n      PUSH [tag] 121\t\t\t\n      PUSH 40\t\t\t\n      DUP4 \t\t\t\n      ADD \t\t\t\n      DUP5 \t\t\t\n      PUSH [tag] 53\t\t\t\n      JUMP \t\t\t\n    tag 121\t\t\t\n      JUMPDEST \t\t\t\n      SWAP5 \t\t\t\n      SWAP4 \t\t\t\n      POP \t\t\t\n      POP \t\t\t\n      POP \t\t\t\n      POP \t\t\t\n      JUMP \t\t\t\n    tag 21\t\t\t\n      JUMPDEST \t\t\t\n      PUSH 0\t\t\t\n      PUSH 20\t\t\t\n      DUP3 \t\t\t\n      ADD \t\t\t\n      SWAP1 \t\t\t\n      POP \t\t\t\n      PUSH [tag] 123\t\t\t\n      PUSH 0\t\t\t\n      DUP4 \t\t\t\n      ADD \t\t\t\n      DUP5 \t\t\t\n      PUSH [tag] 59\t\t\t\n      JUMP \t\t\t\n    tag 123\t\t\t\n      JUMPDEST \t\t\t\n      SWAP3 \t\t\t\n      SWAP2 \t\t\t\n      POP \t\t\t\n      POP \t\t\t\n      JUMP \t\t\t\n    tag 60\t\t\t\n      JUMPDEST \t\t\t\n      PUSH 0\t\t\t\n      DUP1 \t\t\t\n      REVERT \t\t\t\n    tag 61\t\t\t\n      JUMPDEST \t\t\t\n      PUSH 0\t\t\t\n      DUP1 \t\t\t\n      REVERT \t\t\t\n    tag 62\t\t\t\n      JUMPDEST \t\t\t\n      PUSH 4E487B7100000000000000000000000000000000000000000000000000000000\t\t\t\n      PUSH 0\t\t\t\n      MSTORE \t\t\t\n      PUSH 41\t\t\t\n      PUSH 4\t\t\t\n      MSTORE \t\t\t\n      PUSH 24\t\t\t\n      PUSH 0\t\t\t\n      REVERT \t\t\t\n    tag 63\t\t\t\n      JUMPDEST \t\t\t\n      PUSH [tag] 128\t\t\t\n      DUP3 \t\t\t\n      PUSH [tag] 57\t\t\t\n      JUMP \t\t\t\n    tag 128\t\t\t\n      JUMPDEST \t\t\t\n      DUP2 \t\t\t\n      ADD \t\t\t\n      DUP2 \t\t\t\n      DUP2 \t\t\t\n      LT \t\t\t\n      PUSH FFFFFFFFFFFFFFFF\t\t\t\n      DUP3 \t\t\t\n      GT \t\t\t\n      OR \t\t\t\n      ISZERO \t\t\t\n      PUSH [tag] 129\t\t\t\n      JUMPI \t\t\t\n      PUSH [tag] 130\t\t\t\n      PUSH [tag] 62\t\t\t\n      JUMP \t\t\t\n    tag 130\t\t\t\n      JUMPDEST \t\t\t\n    tag 129\t\t\t\n      JUMPDEST \t\t\t\n      DUP1 \t\t\t\n      PUSH 40\t\t\t\n      MSTORE \t\t\t\n      POP \t\t\t\n      POP \t\t\t\n      POP \t\t\t\n      JUMP \t\t\t\n    tag 64\t\t\t\n      JUMPDEST \t\t\t\n      PUSH 0\t\t\t\n      PUSH [tag] 132\t\t\t\n      PUSH [tag] 46\t\t\t\n      JUMP \t\t\t\n    tag 132\t\t\t\n      JUMPDEST \t\t\t\n      SWAP1 \t\t\t\n      POP \t\t\t\n      PUSH [tag] 133\t\t\t\n      DUP3 \t\t\t\n      DUP3 \t\t\t\n      PUSH [tag] 63\t\t\t\n      JUMP \t\t\t\n    tag 133\t\t\t\n      JUMPDEST \t\t\t\n      SWAP2 \t\t\t\n      SWAP1 \t\t\t\n      POP \t\t\t\n      JUMP \t\t\t\n    tag 65\t\t\t\n      JUMPDEST \t\t\t\n      PUSH 0\t\t\t\n      PUSH FFFFFFFFFFFFFFFF\t\t\t\n      DUP3 \t\t\t\n      GT \t\t\t\n      ISZERO \t\t\t\n      PUSH [tag] 135\t\t\t\n      JUMPI \t\t\t\n      PUSH [tag] 136\t\t\t\n      PUSH [tag] 62\t\t\t\n      JUMP \t\t\t\n    tag 136\t\t\t\n      JUMPDEST \t\t\t\n    tag 135\t\t\t\n      JUMPDEST \t\t\t\n      PUSH [tag] 137\t\t\t\n      DUP3 \t\t\t\n      PUSH [tag] 57\t\t\t\n      JUMP \t\t\t\n    tag 137\t\t\t\n      JUMPDEST \t\t\t\n      SWAP1 \t\t\t\n      POP \t\t\t\n      PUSH 20\t\t\t\n      DUP2 \t\t\t\n      ADD \t\t\t\n      SWAP1 \t\t\t\n      POP \t\t\t\n      SWAP2 \t\t\t\n      SWAP1 \t\t\t\n      POP \t\t\t\n      JUMP \t\t\t\n    tag 66\t\t\t\n      JUMPDEST \t\t\t\n      DUP3 \t\t\t\n      DUP2 \t\t\t\n      DUP4 \t\t\t\n      CALLDATACOPY \t\t\t\n      PUSH 0\t\t\t\n      DUP4 \t\t\t\n      DUP4 \t\t\t\n      ADD \t\t\t\n      MSTORE \t\t\t\n      POP \t\t\t\n      POP \t\t\t\n      POP \t\t\t\n      JUMP \t\t\t\n    tag 67\t\t\t\n      JUMPDEST \t\t\t\n      PUSH 0\t\t\t\n      PUSH [tag] 140\t\t\t\n      PUSH [tag] 141\t\t\t\n      DUP5 \t\t\t\n      PUSH [tag] 65\t\t\t\n      JUMP \t\t\t\n    tag 141\t\t\t\n      JUMPDEST \t\t\t\n      PUSH [tag] 64\t\t\t\n      JUMP \t\t\t\n    tag 140\t\t\t\n      JUMPDEST \t\t\t\n      SWAP1 \t\t\t\n      POP \t\t\t\n      DUP3 \t\t\t\n      DUP2 \t\t\t\n      MSTORE \t\t\t\n      PUSH 20\t\t\t\n      DUP2 \t\t\t\n      ADD \t\t\t\n      DUP5 \t\t\t\n      DUP5 \t\t\t\n      DUP5 \t\t\t\n      ADD \t\t\t\n      GT \t\t\t\n      ISZERO \t\t\t\n      PUSH [tag] 142\t\t\t\n      JUMPI \t\t\t\n      PUSH [tag] 143\t\t\t\n      PUSH [tag] 61\t\t\t\n      JUMP \t\t\t\n    tag 143\t\t\t\n      JUMPDEST \t\t\t\n    tag 142\t\t\t\n      JUMPDEST \t\t\t\n      PUSH [tag] 144\t\t\t\n      DUP5 \t\t\t\n      DUP3 \t\t\t\n      DUP6 \t\t\t\n      PUSH [tag] 66\t\t\t\n      JUMP \t\t\t\n    tag 144\t\t\t\n      JUMPDEST \t\t\t\n      POP \t\t\t\n      SWAP4 \t\t\t\n      SWAP3 \t\t\t\n      POP \t\t\t\n      POP \t\t\t\n      POP \t\t\t\n      JUMP \t\t\t\n    tag 68\t\t\t\n      JUMPDEST \t\t\t\n      PUSH 0\t\t\t\n      DUP3 \t\t\t\n      PUSH 1F\t\t\t\n      DUP4 \t\t\t\n      ADD \t\t\t\n      SLT \t\t\t\n      PUSH [tag] 146\t\t\t\n      JUMPI \t\t\t\n      PUSH [tag] 147\t\t\t\n      PUSH [tag] 60\t\t\t\n      JUMP \t\t\t\n    tag 147\t\t\t\n      JUMPDEST \t\t\t\n    tag 146\t\t\t\n      JUMPDEST \t\t\t\n      DUP2 \t\t\t\n      CALLDATALOAD \t\t\t\n      PUSH [tag] 148\t\t\t\n      DUP5 \t\t\t\n      DUP3 \t\t\t\n      PUSH 20\t\t\t\n      DUP7 \t\t\t\n      ADD \t\t\t\n      PUSH [tag] 67\t\t\t\n      JUMP \t\t\t\n    tag 148\t\t\t\n      JUMPDEST \t\t\t\n      SWAP2 \t\t\t\n      POP \t\t\t\n      POP \t\t\t\n      SWAP3 \t\t\t\n      SWAP2 \t\t\t\n      POP \t\t\t\n      POP \t\t\t\n      JUMP \t\t\t\n    tag 69\t\t\t\n      JUMPDEST \t\t\t\n      PUSH [tag] 150\t\t\t\n      DUP2 \t\t\t\n      PUSH [tag] 52\t\t\t\n      JUMP \t\t\t\n    tag 150\t\t\t\n      JUMPDEST \t\t\t\n      DUP2 \t\t\t\n      EQ \t\t\t\n      PUSH [tag] 151\t\t\t\n      JUMPI \t\t\t\n      PUSH 0\t\t\t\n      DUP1 \t\t\t\n      REVERT \t\t\t\n    tag 151\t\t\t\n      JUMPDEST \t\t\t\n      POP \t\t\t\n      JUMP \t\t\t\n    tag 70\t\t\t\n      JUMPDEST \t\t\t\n      PUSH 0\t\t\t\n      DUP2 \t\t\t\n      CALLDATALOAD \t\t\t\n      SWAP1 \t\t\t\n      POP \t\t\t\n      PUSH [tag] 153\t\t\t\n      DUP2 \t\t\t\n      PUSH [tag] 69\t\t\t\n      JUMP \t\t\t\n    tag 153\t\t\t\n      JUMPDEST \t\t\t\n      SWAP3 \t\t\t\n      SWAP2 \t\t\t\n      POP \t\t\t\n      POP \t\t\t\n      JUMP \t\t\t\n    tag 24\t\t\t\n      JUMPDEST \t\t\t\n      PUSH 0\t\t\t\n      DUP1 \t\t\t\n      PUSH 0\t\t\t\n      PUSH 60\t\t\t\n      DUP5 \t\t\t\n      DUP7 \t\t\t\n      SUB \t\t\t\n      SLT \t\t\t\n      ISZERO \t\t\t\n      PUSH [tag] 155\t\t\t\n      JUMPI \t\t\t\n      PUSH [tag] 156\t\t\t\n      PUSH [tag] 47\t\t\t\n      JUMP \t\t\t\n    tag 156\t\t\t\n      JUMPDEST \t\t\t\n    tag 155\t\t\t\n      JUMPDEST \t\t\t\n      PUSH 0\t\t\t\n      DUP5 \t\t\t\n      ADD \t\t\t\n      CALLDATALOAD \t\t\t\n      PUSH FFFFFFFFFFFFFFFF\t\t\t\n      DUP2 \t\t\t\n      GT \t\t\t\n      ISZERO \t\t\t\n      PUSH [tag] 157\t\t\t\n      JUMPI \t\t\t\n      PUSH [tag] 158\t\t\t\n      PUSH [tag] 48\t\t\t\n      JUMP \t\t\t\n    tag 158\t\t\t\n      JUMPDEST \t\t\t\n    tag 157\t\t\t\n      JUMPDEST \t\t\t\n      PUSH [tag] 159\t\t\t\n      DUP7 \t\t\t\n      DUP3 \t\t\t\n      DUP8 \t\t\t\n      ADD \t\t\t\n      PUSH [tag] 68\t\t\t\n      JUMP \t\t\t\n    tag 159\t\t\t\n      JUMPDEST \t\t\t\n      SWAP4 \t\t\t\n      POP \t\t\t\n      POP \t\t\t\n      PUSH 20\t\t\t\n      PUSH [tag] 160\t\t\t\n      DUP7 \t\t\t\n      DUP3 \t\t\t\n      DUP8 \t\t\t\n      ADD \t\t\t\n      PUSH [tag] 51\t\t\t\n      JUMP \t\t\t\n    tag 160\t\t\t\n      JUMPDEST \t\t\t\n      SWAP3 \t\t\t\n      POP \t\t\t\n      POP \t\t\t\n      PUSH 40\t\t\t\n      PUSH [tag] 161\t\t\t\n      DUP7 \t\t\t\n      DUP3 \t\t\t\n      DUP8 \t\t\t\n      ADD \t\t\t\n      PUSH [tag] 70\t\t\t\n      JUMP \t\t\t\n    tag 161\t\t\t\n      JUMPDEST \t\t\t\n      SWAP2 \t\t\t\n      POP \t\t\t\n      POP \t\t\t\n      SWAP3 \t\t\t\n      POP \t\t\t\n      SWAP3 \t\t\t\n      POP \t\t\t\n      SWAP3 \t\t\t\n      JUMP \t\t\t\n    tag 71\t\t\t\n      JUMPDEST \t\t\t\n      PUSH 4E487B7100000000000000000000000000000000000000000000000000000000\t\t\t\n      PUSH 0\t\t\t\n      MSTORE \t\t\t\n      PUSH 22\t\t\t\n      PUSH 4\t\t\t\n      MSTORE \t\t\t\n      PUSH 24\t\t\t\n      PUSH 0\t\t\t\n      REVERT \t\t\t\n    tag 29\t\t\t\n      JUMPDEST \t\t\t\n      PUSH 0\t\t\t\n      PUSH 2\t\t\t\n      DUP3 \t\t\t\n      DIV \t\t\t\n      SWAP1 \t\t\t\n      POP \t\t\t\n      PUSH 1\t\t\t\n      DUP3 \t\t\t\n      AND \t\t\t\n      DUP1 \t\t\t\n      PUSH [tag] 164\t\t\t\n      JUMPI \t\t\t\n      PUSH 7F\t\t\t\n      DUP3 \t\t\t\n      AND \t\t\t\n      SWAP2 \t\t\t\n      POP \t\t\t\n    tag 164\t\t\t\n      JUMPDEST \t\t\t\n      PUSH 20\t\t\t\n      DUP3 \t\t\t\n      LT \t\t\t\n      DUP2 \t\t\t\n      SUB \t\t\t\n      PUSH [tag] 165\t\t\t\n      JUMPI \t\t\t\n      PUSH [tag] 166\t\t\t\n      PUSH [tag] 71\t\t\t\n      JUMP \t\t\t\n    tag 166\t\t\t\n      JUMPDEST \t\t\t\n    tag 165\t\t\t\n      JUMPDEST \t\t\t\n      POP \t\t\t\n      SWAP2 \t\t\t\n      SWAP1 \t\t\t\n      POP \t\t\t\n      JUMP \t\t\t\n    tag 72\t\t\t\n      JUMPDEST \t\t\t\n      PUSH 4E487B7100000000000000000000000000000000000000000000000000000000\t\t\t\n      PUSH 0\t\t\t\n      MSTORE \t\t\t\n      PUSH 11\t\t\t\n      PUSH 4\t\t\t\n      MSTORE \t\t\t\n      PUSH 24\t\t\t\n      PUSH 0\t\t\t\n      REVERT \t\t\t\n    tag 43\t\t\t\n      JUMPDEST \t\t\t\n      PUSH 0\t\t\t\n      PUSH [tag] 169\t\t\t\n      DUP3 \t\t\t\n      PUSH [tag] 49\t\t\t\n      JUMP \t\t\t\n    tag 169\t\t\t\n      JUMPDEST \t\t\t\n      SWAP2 \t\t\t\n      POP \t\t\t\n      PUSH FFFFFFFFFFFFFFFFFFFFFFFFFFFFFFFFFFFFFFFFFFFFFFFFFFFFFFFFFFFFFFFF\t\t\t\n      DUP3 \t\t\t\n      SUB \t\t\t\n      PUSH [tag] 170\t\t\t\n      JUMPI \t\t\t\n      PUSH [tag] 171\t\t\t\n      PUSH [tag] 72\t\t\t\n      JUMP \t\t\t\n    tag 171\t\t\t\n      JUMPDEST \t\t\t\n    tag 170\t\t\t\n      JUMPDEST \t\t\t\n      PUSH 1\t\t\t\n      DUP3 \t\t\t\n      ADD \t\t\t\n      SWAP1 \t\t\t\n      POP \t\t\t\n      SWAP2 \t\t\t\n      SWAP1 \t\t\t\n      POP \t\t\t\n      JUMP \t\t\t\n    tag 73\t\t\t\n      JUMPDEST \t\t\t\n      PUSH 0\t\t\t\n      DUP2 \t\t\t\n      SWAP1 \t\t\t\n      POP \t\t\t\n      DUP2 \t\t\t\n      PUSH 0\t\t\t\n      MSTORE \t\t\t\n      PUSH 20\t\t\t\n      PUSH 0\t\t\t\n      KECCAK256 \t\t\t\n      SWAP1 \t\t\t\n      POP \t\t\t\n      SWAP2 \t\t\t\n      SWAP1 \t\t\t\n      POP \t\t\t\n      JUMP \t\t\t\n    tag 74\t\t\t\n      JUMPDEST \t\t\t\n      PUSH 0\t\t\t\n      PUSH 20\t\t\t\n      PUSH 1F\t\t\t\n      DUP4 \t\t\t\n      ADD \t\t\t\n      DIV \t\t\t\n      SWAP1 \t\t\t\n      POP \t\t\t\n      SWAP2 \t\t\t\n      SWAP1 \t\t\t\n      POP \t\t\t\n      JUMP \t\t\t\n    tag 75\t\t\t\n      JUMPDEST \t\t\t\n      PUSH 0\t\t\t\n      DUP3 \t\t\t\n      DUP3 \t\t\t\n      SHL \t\t\t\n      SWAP1 \t\t\t\n      POP \t\t\t\n      SWAP3 \t\t\t\n      SWAP2 \t\t\t\n      POP \t\t\t\n      POP \t\t\t\n      JUMP \t\t\t\n    tag 76\t\t\t\n      JUMPDEST \t\t\t\n      PUSH 0\t\t\t\n      PUSH 8\t\t\t\n      DUP4 \t\t\t\n      MUL \t\t\t\n      PUSH [tag] 176\t\t\t\n      PUSH FFFFFFFFFFFFFFFFFFFFFFFFFFFFFFFFFFFFFFFFFFFFFFFFFFFFFFFFFFFFFFFF\t\t\t\n      DUP3 \t\t\t\n      PUSH [tag] 75\t\t\t\n      JUMP \t\t\t\n    tag 176\t\t\t\n      JUMPDEST \t\t\t\n      PUSH [tag] 177\t\t\t\n      DUP7 \t\t\t\n      DUP4 \t\t\t\n      PUSH [tag] 75\t\t\t\n      JUMP \t\t\t\n    tag 177\t\t\t\n      JUMPDEST \t\t\t\n      SWAP6 \t\t\t\n      POP \t\t\t\n      DUP1 \t\t\t\n      NOT \t\t\t\n      DUP5 \t\t\t\n      AND \t\t\t\n      SWAP4 \t\t\t\n      POP \t\t\t\n      DUP1 \t\t\t\n      DUP7 \t\t\t\n      AND \t\t\t\n      DUP5 \t\t\t\n      OR \t\t\t\n      SWAP3 \t\t\t\n      POP \t\t\t\n      POP \t\t\t\n      POP \t\t\t\n      SWAP4 \t\t\t\n      SWAP3 \t\t\t\n      POP \t\t\t\n      POP \t\t\t\n      POP \t\t\t\n      JUMP \t\t\t\n    tag 77\t\t\t\n      JUMPDEST \t\t\t\n      PUSH 0\t\t\t\n      DUP2 \t\t\t\n      SWAP1 \t\t\t\n      POP \t\t\t\n      SWAP2 \t\t\t\n      SWAP1 \t\t\t\n      POP \t\t\t\n      JUMP \t\t\t\n    tag 78\t\t\t\n      JUMPDEST \t\t\t\n      PUSH 0\t\t\t\n      PUSH [tag] 180\t\t\t\n      PUSH [tag] 181\t\t\t\n      PUSH [tag] 182\t\t\t\n      DUP5 \t\t\t\n      PUSH [tag] 49\t\t\t\n      JUMP \t\t\t\n    tag 182\t\t\t\n      JUMPDEST \t\t\t\n      PUSH [tag] 77\t\t\t\n      JUMP \t\t\t\n    tag 181\t\t\t\n      JUMPDEST \t\t\t\n      PUSH [tag] 49\t\t\t\n      JUMP \t\t\t\n    tag 180\t\t\t\n      JUMPDEST \t\t\t\n      SWAP1 \t\t\t\n      POP \t\t\t\n      SWAP2 \t\t\t\n      SWAP1 \t\t\t\n      POP \t\t\t\n      JUMP \t\t\t\n    tag 79\t\t\t\n      JUMPDEST \t\t\t\n      PUSH 0\t\t\t\n      DUP2 \t\t\t\n      SWAP1 \t\t\t\n      POP \t\t\t\n      SWAP2 \t\t\t\n      SWAP1 \t\t\t\n      POP \t\t\t\n      JUMP \t\t\t\n    tag 80\t\t\t\n      JUMPDEST \t\t\t\n      PUSH [tag] 185\t\t\t\n      DUP4 \t\t\t\n      PUSH [tag] 78\t\t\t\n      JUMP \t\t\t\n    tag 185\t\t\t\n      JUMPDEST \t\t\t\n      PUSH [tag] 186\t\t\t\n      PUSH [tag] 187\t\t\t\n      DUP3 \t\t\t\n      PUSH [tag] 79\t\t\t\n      JUMP \t\t\t\n    tag 187\t\t\t\n      JUMPDEST \t\t\t\n      DUP5 \t\t\t\n      DUP5 \t\t\t\n      SLOAD \t\t\t\n      PUSH [tag] 76\t\t\t\n      JUMP \t\t\t\n    tag 186\t\t\t\n      JUMPDEST \t\t\t\n      DUP3 \t\t\t\n      SSTORE \t\t\t\n      POP \t\t\t\n      POP \t\t\t\n      POP \t\t\t\n      POP \t\t\t\n      JUMP \t\t\t\n    tag 81\t\t\t\n      JUMPDEST \t\t\t\n      PUSH 0\t\t\t\n      SWAP1 \t\t\t\n      JUMP \t\t\t\n    tag 82\t\t\t\n      JUMPDEST \t\t\t\n      PUSH [tag] 190\t\t\t\n      PUSH [tag] 81\t\t\t\n      JUMP \t\t\t\n    tag 190\t\t\t\n      JUMPDEST \t\t\t\n      PUSH [tag] 191\t\t\t\n      DUP2 \t\t\t\n      DUP5 \t\t\t\n      DUP5 \t\t\t\n      PUSH [tag] 80\t\t\t\n      JUMP \t\t\t\n    tag 191\t\t\t\n      JUMPDEST \t\t\t\n      POP \t\t\t\n      POP \t\t\t\n      POP \t\t\t\n      JUMP \t\t\t\n    tag 83\t\t\t\n      JUMPDEST \t\t\t\n    tag 193\t\t\t\n      JUMPDEST \t\t\t\n      DUP2 \t\t\t\n      DUP2 \t\t\t\n      LT \t\t\t\n      ISZERO \t\t\t\n      PUSH [tag] 195\t\t\t\n      JUMPI \t\t\t\n      PUSH [tag] 196\t\t\t\n      PUSH 0\t\t\t\n      DUP3 \t\t\t\n      PUSH [tag] 82\t\t\t\n      JUMP \t\t\t\n    tag 196\t\t\t\n      JUMPDEST \t\t\t\n      PUSH 1\t\t\t\n      DUP2 \t\t\t\n      ADD \t\t\t\n      SWAP1 \t\t\t\n      POP \t\t\t\n      PUSH [tag] 193\t\t\t\n      JUMP \t\t\t\n    tag 195\t\t\t\n      JUMPDEST \t\t\t\n      POP \t\t\t\n      POP \t\t\t\n      JUMP \t\t\t\n    tag 84\t\t\t\n      JUMPDEST \t\t\t\n      PUSH 1F\t\t\t\n      DUP3 \t\t\t\n      GT \t\t\t\n      ISZERO \t\t\t\n      PUSH [tag] 198\t\t\t\n      JUMPI \t\t\t\n      PUSH [tag] 199\t\t\t\n      DUP2 \t\t\t\n      PUSH [tag] 73\t\t\t\n      JUMP \t\t\t\n    tag 199\t\t\t\n      JUMPDEST \t\t\t\n      PUSH [tag] 200\t\t\t\n      DUP5 \t\t\t\n      PUSH [tag] 74\t\t\t\n      JUMP \t\t\t\n    tag 200\t\t\t\n      JUMPDEST \t\t\t\n      DUP2 \t\t\t\n      ADD \t\t\t\n      PUSH 20\t\t\t\n      DUP6 \t\t\t\n      LT \t\t\t\n      ISZERO \t\t\t\n      PUSH [tag] 201\t\t\t\n      JUMPI \t\t\t\n      DUP2 \t\t\t\n      SWAP1 \t\t\t\n      POP \t\t\t\n    tag 201\t\t\t\n      JUMPDEST \t\t\t\n      PUSH [tag] 202\t\t\t\n      PUSH [tag] 203\t\t\t\n      DUP6 \t\t\t\n      PUSH [tag] 74\t\t\t\n      JUMP \t\t\t\n    tag 203\t\t\t\n      JUMPDEST \t\t\t\n      DUP4 \t\t\t\n      ADD \t\t\t\n      DUP3 \t\t\t\n      PUSH [tag] 83\t\t\t\n      JUMP \t\t\t\n    tag 202\t\t\t\n      JUMPDEST \t\t\t\n      POP \t\t\t\n      POP \t\t\t\n    tag 198\t\t\t\n      JUMPDEST \t\t\t\n      POP \t\t\t\n      POP \t\t\t\n      POP \t\t\t\n      JUMP \t\t\t\n    tag 85\t\t\t\n      JUMPDEST \t\t\t\n      PUSH 0\t\t\t\n      DUP3 \t\t\t\n      DUP3 \t\t\t\n      SHR \t\t\t\n      SWAP1 \t\t\t\n      POP \t\t\t\n      SWAP3 \t\t\t\n      SWAP2 \t\t\t\n      POP \t\t\t\n      POP \t\t\t\n      JUMP \t\t\t\n    tag 86\t\t\t\n      JUMPDEST \t\t\t\n      PUSH 0\t\t\t\n      PUSH [tag] 206\t\t\t\n      PUSH 0\t\t\t\n      NOT \t\t\t\n      DUP5 \t\t\t\n      PUSH 8\t\t\t\n      MUL \t\t\t\n      PUSH [tag] 85\t\t\t\n      JUMP \t\t\t\n    tag 206\t\t\t\n      JUMPDEST \t\t\t\n      NOT \t\t\t\n      DUP1 \t\t\t\n      DUP4 \t\t\t\n      AND \t\t\t\n      SWAP2 \t\t\t\n      POP \t\t\t\n      POP \t\t\t\n      SWAP3 \t\t\t\n      SWAP2 \t\t\t\n      POP \t\t\t\n      POP \t\t\t\n      JUMP \t\t\t\n    tag 87\t\t\t\n      JUMPDEST \t\t\t\n      PUSH 0\t\t\t\n      PUSH [tag] 208\t\t\t\n      DUP4 \t\t\t\n      DUP4 \t\t\t\n      PUSH [tag] 86\t\t\t\n      JUMP \t\t\t\n    tag 208\t\t\t\n      JUMPDEST \t\t\t\n      SWAP2 \t\t\t\n      POP \t\t\t\n      DUP3 \t\t\t\n      PUSH 2\t\t\t\n      MUL \t\t\t\n      DUP3 \t\t\t\n      OR \t\t\t\n      SWAP1 \t\t\t\n      POP \t\t\t\n      SWAP3 \t\t\t\n      SWAP2 \t\t\t\n      POP \t\t\t\n      POP \t\t\t\n      JUMP \t\t\t\n    tag 45\t\t\t\n      JUMPDEST \t\t\t\n      PUSH [tag] 210\t\t\t\n      DUP3 \t\t\t\n      PUSH [tag] 54\t\t\t\n      JUMP \t\t\t\n    tag 210\t\t\t\n      JUMPDEST \t\t\t\n      PUSH FFFFFFFFFFFFFFFF\t\t\t\n      DUP2 \t\t\t\n      GT \t\t\t\n      ISZERO \t\t\t\n      PUSH [tag] 211\t\t\t\n      JUMPI \t\t\t\n      PUSH [tag] 212\t\t\t\n      PUSH [tag] 62\t\t\t\n      JUMP \t\t\t\n    tag 212\t\t\t\n      JUMPDEST \t\t\t\n    tag 211\t\t\t\n      JUMPDEST \t\t\t\n      PUSH [tag] 213\t\t\t\n      DUP3 \t\t\t\n      SLOAD \t\t\t\n      PUSH [tag] 29\t\t\t\n      JUMP \t\t\t\n    tag 213\t\t\t\n      JUMPDEST \t\t\t\n      PUSH [tag] 214\t\t\t\n      DUP3 \t\t\t\n      DUP3 \t\t\t\n      DUP6 \t\t\t\n      PUSH [tag] 84\t\t\t\n      JUMP \t\t\t\n    tag 214\t\t\t\n      JUMPDEST \t\t\t\n      PUSH 0\t\t\t\n      PUSH 20\t\t\t\n      SWAP1 \t\t\t\n      POP \t\t\t\n      PUSH 1F\t\t\t\n      DUP4 \t\t\t\n      GT \t\t\t\n      PUSH 1\t\t\t\n      DUP2 \t\t\t\n      EQ \t\t\t\n      PUSH [tag] 216\t\t\t\n      JUMPI \t\t\t\n      PUSH 0\t\t\t\n      DUP5 \t\t\t\n      ISZERO \t\t\t\n      PUSH [tag] 217\t\t\t\n      JUMPI \t\t\t\n      DUP3 \t\t\t\n      DUP8 \t\t\t\n      ADD \t\t\t\n      MLOAD \t\t\t\n      SWAP1 \t\t\t\n      POP \t\t\t\n    tag 217\t\t\t\n      JUMPDEST \t\t\t\n      PUSH [tag] 218\t\t\t\n      DUP6 \t\t\t\n      DUP3 \t\t\t\n      PUSH [tag] 87\t\t\t\n      JUMP \t\t\t\n    tag 218\t\t\t\n      JUMPDEST \t\t\t\n      DUP7 \t\t\t\n      SSTORE \t\t\t\n      POP \t\t\t\n      PUSH [tag] 215\t\t\t\n      JUMP \t\t\t\n    tag 216\t\t\t\n      JUMPDEST \t\t\t\n      PUSH 1F\t\t\t\n      NOT \t\t\t\n      DUP5 \t\t\t\n      AND \t\t\t\n      PUSH [tag] 219\t\t\t\n      DUP7 \t\t\t\n      PUSH [tag] 73\t\t\t\n      JUMP \t\t\t\n    tag 219\t\t\t\n      JUMPDEST \t\t\t\n      PUSH 0\t\t\t\n    tag 220\t\t\t\n      JUMPDEST \t\t\t\n      DUP3 \t\t\t\n      DUP2 \t\t\t\n      LT \t\t\t\n      ISZERO \t\t\t\n      PUSH [tag] 222\t\t\t\n      JUMPI \t\t\t\n      DUP5 \t\t\t\n      DUP10 \t\t\t\n      ADD \t\t\t\n      MLOAD \t\t\t\n      DUP3 \t\t\t\n      SSTORE \t\t\t\n      PUSH 1\t\t\t\n      DUP3 \t\t\t\n      ADD \t\t\t\n      SWAP2 \t\t\t\n      POP \t\t\t\n      PUSH 20\t\t\t\n      DUP6 \t\t\t\n      ADD \t\t\t\n      SWAP5 \t\t\t\n      POP \t\t\t\n      PUSH 20\t\t\t\n      DUP2 \t\t\t\n      ADD \t\t\t\n      SWAP1 \t\t\t\n      POP \t\t\t\n      PUSH [tag] 220\t\t\t\n      JUMP \t\t\t\n    tag 222\t\t\t\n      JUMPDEST \t\t\t\n      DUP7 \t\t\t\n      DUP4 \t\t\t\n      LT \t\t\t\n      ISZERO \t\t\t\n      PUSH [tag] 223\t\t\t\n      JUMPI \t\t\t\n      DUP5 \t\t\t\n      DUP10 \t\t\t\n      ADD \t\t\t\n      MLOAD \t\t\t\n      PUSH [tag] 224\t\t\t\n      PUSH 1F\t\t\t\n      DUP10 \t\t\t\n      AND \t\t\t\n      DUP3 \t\t\t\n      PUSH [tag] 86\t\t\t\n      JUMP \t\t\t\n    tag 224\t\t\t\n      JUMPDEST \t\t\t\n      DUP4 \t\t\t\n      SSTORE \t\t\t\n      POP \t\t\t\n    tag 223\t\t\t\n      JUMPDEST \t\t\t\n      PUSH 1\t\t\t\n      PUSH 2\t\t\t\n      DUP9 \t\t\t\n      MUL \t\t\t\n      ADD \t\t\t\n      DUP9 \t\t\t\n      SSTORE \t\t\t\n      POP \t\t\t\n      POP \t\t\t\n      POP \t\t\t\n    tag 215\t\t\t\n      JUMPDEST \t\t\t\n      POP \t\t\t\n      POP \t\t\t\n      POP \t\t\t\n      POP \t\t\t\n      POP \t\t\t\n      POP \t\t\t\n      JUMP \t\t\t\n    .data\n"
}